:020000040000FA
:10000000B8042020890200008D0200008F02000049
:1000100000000000000000000000000000000000E0
:100020000000000000000000000000002526000085
:100030000000000000000000E1250000712D00001C
:10004000970200009702000097020000970200004C
:10005000970200009702000097020000970200003C
:10006000000000009702000097020000000000005E
:1000700000000000970200009702000097020000B5
:10008000970200009702000097020000970200000C
:10009000970200009702000000000000000000002E
:1000A000970200009702000000000000000000001E
:1000B0009702000000000000970200009702000075
:1000C00000F002F800F0D1F812A030C80838241867
:1000D0002D18AC4201D100F0C8F80FCCA246AB46B7
:1000E0000CA730CF2D1B083F3F197C427F1E544484
:1000F0002D090426F441641EAC4201D300F0B5F88A
:100100000126334200D0FB1A3343984754465D46DC
:10011000DFE70000943E0000B43E00000000000055
:10012000103A02D378C878C1FAD8520701D330C840
:1001300030C101D504680C60704700000000000069
:100140007047000000000000002300240025002666
:10015000103A01D378C1FBD8520700D330C100D583
:100160000B60704710B56E2902D100F07BFA10BD0C
:10017000702902D100F0B7FB10BD662902D103F04F
:10018000EFF910BD652902D103F0EAF910BD672926
:1001900002D103F0E5F910BD612902D103F0E8F9BD
:1001A00010BD03681B0A01D380231943692902D1BA
:1001B00000F022FA10BD642902D100F01DFA10BD32
:1001C000752902D100F018FA10BD6F2902D100F094
:1001D00035FB10BD782902D100F072FB10BDE92972
:1001E00002D100F0D1FA10BDE42902D100F0CCFA1E
:1001F00010BDF52902D100F0C7FA10BDEF2902D1D8
:1002000000F028FB10BDF82902D100F067FB10BDFB
:100210000368DB0901D380231943632902D101F06C
:100220004AF810BD732902D101F04DF810BDE32941
:1002300002D101F057F810BDF32902D101F05AF8AC
:1002400010BD002010BD1FB501F0B4F8040000205F
:10025000002103F06FF9401C60600020002103F0D2
:1002600053F9E0601FBD10B510BD01F07CF81146D8
:10027000FFF7E9FF02F0BBFD01F010FC03B4FFF74C
:10028000F2FF03BC01F06EFC06480047FEE7FEE704
:10029000FEE7FEE7FEE7FEE703480449024A044B97
:1002A00070470000C1000000B8032020B8042020DF
:1002B000B80320207CB51D4616460C00009007D0E0
:1002C0004142A14202D30019401E01E00020C04378
:1002D000064B7B442A4669460190304600F0DBF924
:1002E000002C02D0009A002111707CBDE7030000B1
:1002F00030B5441C03E00178401C00290DD0810773
:10030000F9D10B4BDD0104C8D11A91432940FAD031
:10031000001B0A0603D0C01E30BD001B30BD0A04FE
:1003200001D0801E30BD0902FCD0401E30BD00004F
:1003300001010101002203098B4273D3030A8B429E
:1003400058D3030B8B423CD3030C8B4221D312E0D6
:1003500003460B437FD4002243088B4274D3030926
:100360008B425FD3030A8B4244D3030B8B4228D3C7
:10037000030C8B420DD30902FF2212BA030C8B42ED
:1003800002D31212090265D0030B8B4219D300E08D
:10039000090AC30B8B4201D3CB03C01A5241830B12
:1003A0008B4201D38B03C01A5241430B8B4201D3C2
:1003B0004B03C01A5241030B8B4201D30B03C01AEB
:1003C0005241C30A8B4201D3CB02C01A5241830A65
:1003D0008B4201D38B02C01A5241430A8B4201D394
:1003E0004B02C01A5241030A8B4201D30B02C01ABE
:1003F0005241CDD2C3098B4201D3CB01C01A524125
:1004000083098B4201D38B01C01A524143098B42AD
:1004100001D34B01C01A524103098B4201D30B0196
:10042000C01A5241C3088B4201D3CB00C01A5241BB
:1004300083088B4201D38B00C01A524143088B4280
:1004400001D34B00C01A5241411A00D20146524119
:10045000104670475DE0CA0F00D04942031000D338
:10046000404253409C46002203098B422DD3030A8D
:100470008B4212D38901FC2212BA030A8B420CD39D
:10048000890192118B4208D3890192118B4204D3C6
:1004900089013AD0921100E08909C3098B4201D346
:1004A000CB01C01A524183098B4201D38B01C01A80
:1004B000524143098B4201D34B01C01A52410309F7
:1004C0008B4201D30B01C01A5241C3088B4201D3A6
:1004D000CB00C01A524183088B4201D38B00C01A53
:1004E0005241D9D243088B4201D34B00C01A52412A
:1004F000411A00D201465241104663465B1001D3B7
:100500004042002B00D54942704763465B1000D340
:10051000404201B50449002802DC491C084000E0C3
:100520000846C046C04602BDFFFFFF7F70477047C8
:10053000704770B5044685690068C10601D530264C
:1005400000E02026C00707D070BD62683046A16871
:100550009047206A401C20626D1EF6D570BD70B5B4
:10056000044685690078C00707D170BD6268A1683C
:1005700020209047206A401C20626D1EF6D570BD79
:1005800009684A0501D540B27047C905FCD500B2DB
:10059000704709684A0501D5C0B27047C905FCD546
:1005A00080B2704770B50C460546012A05D0287800
:1005B000800600D5EA69002302E0012305E05B1C08
:1005C000934202D2E05C0028F9D1A869E618C01A6B
:1005D000A861286AC01828622846FFF7AAFF04E02D
:1005E0006A682078A968641C9047B442F8D328460A
:1005F000FFF7B5FF70BD0000F7B50025752910683D
:10060000009914A611D0FFF7BBFF002802DA404280
:1006100011A608E0009909688A0701D50FA602E033
:10062000490704D50EA6012501E0FFF7B2FF009FA0
:100630000024243704E000F082FE30313955641C78
:100640000028F8D12B4632462146009800F059FA8E
:10065000FEBD0000000000002D0000002B00000087
:100660002000000011680268006A530501D5087077
:1006700009E0D30501D5088005E0130602D5C217AD
:1006800005C100E0086001207047000001694A1CB4
:1006900002610878704700B58FB002910021059182
:1006A000054901937944039111460490684600F08E
:1006B00027F90FB000BD0000E5FFFFFF0CC90839A6
:1006C0009A4202D2531C0B6010707047F7B5044673
:1006D000154686B02B487844002703C83E46009054
:1006E000019111E007986A467100415A02A800F092
:1006F00005FE411C07D02178890603D5E269391827
:1007000091420ED83F18761C2078800602D5E06909
:10071000B84206DDAE42E5DB07987100405A00287A
:10072000E0D1A069C01BA0612046FFF702FF154879
:1007300078445A3803C800900020019116E0410027
:100740006A460798415A02A800F0D8FD0590401C5F
:100750000AD0002505E0626802A8A168405D9047C4
:100760006D1C05988542F6D30498401CB042049055
:10077000E5DB206AC01920622046FFF7F0FE09B0D1
:10078000F0BD0000A62E0000F7B5D21D0025D2084E
:1007900015A6D200F52905CA11D0002A05DA0021D4
:1007A0004042914111A60A4608E0009909688B076A
:1007B00001D50FA602E0490701D50EA60125114675
:1007C000009F0024243704E000F05EF930323A55EF
:1007D000641C02460A43F7D12B4632462146009854
:1007E00000F08FF9FEBD0000000000002D000000A9
:1007F0002B0000002000000070B5044600212434C6
:1008000008E05507D2086D0F303565545D072A435F
:10081000DB08491C15461D43F3D10468002310A2D0
:10082000250708D520252C400C4304D0C46901239A
:100830000CA2641EC46100F064F970BD10B50446DA
:1008400021461068FFF7A5FE002302462046FFF769
:10085000D3FF10BDD21DD108C9000CC9CCE70000E0
:100860000000000030000000F8B50F4601880905BF
:1008700002D5224C7C4402E0204C7C440E340546D8
:100880000021243508E016071209360FA65D6E54C4
:100890001E0732431B09491C16461E43F3D122464C
:1008A00004780023240705D5702F06D0002901D035
:1008B0000223113200F025F9F8BD01231032F9E7C7
:1008C00070B504460D4621461068FFF762FE00230E
:1008D000024629462046FFF7C7FF70BDD21DD30848
:1008E000DB000CCBC0E730B403682024126823433C
:1008F00003600823C36130BC0023B5E7102D00005E
:10090000F3B50446002081B020622046E1688847A4
:10091000002872D0252802D06268A168ABE0594F48
:1009200000267F442046E16888472028054608DBEA
:10093000312D06D2781920380078002801D00643DE
:10094000F0E7B00701D5042086430020E0610746A8
:10095000A0612A2D0AD0284602F0CEFD002827D01B
:10096000B8000019303D0090856119E00298BA0086
:10097000121902C8916102902046E1688847012F50
:10098000054617D1E06900281FDA202086431CE0C5
:1009900000980A21806948430099401930388861DD
:1009A0002046E1688847054602F0A6FD0028EFD101
:1009B000012F0AD02E2D08D12046E1688847054630
:1009C000202006437F1C022FC3DBA069002803DA26
:1009D0004042A06101200643F00701D01020864369
:1009E0006C2D0BD0682D09D04C2D3CD06A2D38D001
:1009F000742D38D07A2D36D016E040E0E1682F46CD
:100A000020468847B842054609D16C2F29D00120DD
:100A10008002E168064320468847054604E06C2FC3
:100A20001DD0FF2001300643002D28D02846413834
:100A3000192803D80120C00206432035204626602D
:100A40002946029A1646FFF78DFB002810D0012890
:100A50000BD0F61DF008C0000830029055E740208A
:100A6000E1E78020D5E70020D3E7361D02964CE76A
:100A700062682846A1689047206A401C44E7206AC3
:100A8000FEBD00008A2C00000B4670B502468907A7
:100A90008008084319469D08141AA941250908072A
:100AA000054308092C194841250A01060D43010A8E
:100AB0002C194141200C0D0428430D0C00194D4107
:100AC000002140194D41C00869070843E908840F17
:100AD0008D002543840024184D4124196D41121BBB
:100AE000AB4107E00925ED432C1152196341002465
:100AF000401C61411C460A250026551BB441F1D219
:100B000070BDFFB504460D4681B0243000902168C9
:100B1000880604D51022E0699143216000E001209D
:100B2000A84201DD471B00E000270498A1697A195B
:100B30001018081AA0612078C00602D42046FFF7DA
:100B4000F8FC002608E003986268A168805D904781
:100B5000206A401C761C206204988642F3DB2078D1
:100B6000C0060AD52046FFF7E4FC06E06268A168EB
:100B700030209047206A401C206238467F1E0028A3
:100B8000F4DC07E000986268A168405D9047206A45
:100B9000401C206228466D1E0028F3DC2046FFF72B
:100BA000DEFC2078000602D5022005B0F0BD012051
:100BB000FBE70000FFB50C461E468FB003CA089045
:100BC00009914F007D0D00D16D1E002108460020C7
:100BD000C0460321099A89050840002A03DA8200E9
:100BE000801840080840800D01280A9002DD00208E
:100BF000C0430A90089807430DD0F048F0492818E0
:100C000048430714189800281DD07542291E1DDD81
:100C10000A9842421BE01898012802D00020302197
:100C200004E00020F24305E02154401CB042FBDB0D
:100C300030460022189B002121540F998B600A60D6
:100C4000486013B0F0BDBD1B6D1CDFE70A9A002998
:100C500000DA69420BA800F0F5FB0BAB07CB03AB46
:100C600007C30899099800F059FC6B4607C3014671
:100C7000D4480918002D00910BDDD24903980A9A37
:100C800049424018002303A90390684600F0B6FECD
:100C900008E003990A9A0023081803A903906846FC
:100CA00000F056FE6B4607C30004000C03D0002082
:100CB000C043410800E01046189A002A03D00022E1
:100CC000009215461EE0751E05D4FFF7DDFE30329A
:100CD00062556D1EF9D501220843079602D0002205
:100CE0007F1C04E02078302801D100227F1E002ADA
:100CF000069787D01EE0112D07DAFFF7C5FE3032C8
:100D000062556D1C02460A43F5D1084303D0009892
:100D1000002819D00EE00021681E05E0235C625C0B
:100D200063542254401E491C8142F7DBA81B401E1D
:100D300007950690079A18990020A0540F98079BD2
:100D4000069A81600CC07CE711260020189059E7B4
:100D5000D21DF0B50D460446D10893B0C90003C9B1
:100D60000C900D9102F0B2FB02460D98C00F01D01D
:100D70002D2007E02068810701D52B2002E04007E5
:100D8000C00F4001032A0F9001D0072A05DB03465C
:100D90002946204600F012FB0EE12078800601D59E
:100DA000E76900E006272846652D04D0662814D0A0
:100DB000672D69D12DE00020112F009001DB112358
:100DC00000E07B1C0CAA03A910A8FFF7F3FE119901
:100DD000002610987D1C0E9142E001203B460CAA93
:100DE000C0070B900120009003A910A8FFF7E2FEB6
:100DF000119D12981099002600280E9501D1781C9B
:100E00000D18781B02D446427D1C761EE81B00900C
:100E10003AE0012F00DA01270020112F009001DDB8
:100E2000112300E03B460CAA03A910A8FFF7C2FE5D
:100E300011993D46109800260E91217809070BD490
:100E40000E99A94200DA0D4603A9012D04DD4A19C5
:100E5000203AD27F302A06D0B84201DA011D04DAE6
:100E6000012100910FE06D1EEFE7002802DC8619DA
:100E70002D1A03E0411CA94200DD0D46801B401CD9
:100E800000900120C0070B902078000705D400983F
:100E9000A84202DB0020C043009069460020C872CF
:100EA0000B98012102AF0337C907884225D00220E1
:100EB00010902B2011900B9800280BDA40420B90D9
:100EC0002D20119006E00B9800F039FA30317F1E8A
:100ED0000B9039701099481E00291090F3DC0B9884
:100EE0000028F0D111987F1E38702088000501D5A8
:100EF000452000E065207F1E387001A8C01BC01D82
:100F00000B900F98002800D0012041190098C017BD
:100F100009180B980818A169081A401EA0612078CA
:100F2000C00602D42046FFF704FB0F98002805D026
:100F30006268A1689047206A401C20622078C00641
:100F400025D52046FFF7F5FA21E0002E07DB0E98A5
:100F5000B04204DD03A86268805DA16802E06268B7
:100F6000A16830209047206A761C401C20620098BF
:100F7000401E002800900AD100F01CFAC068626888
:100F80000168405CA1689047206A401C20622846A6
:100F90006D1E0028D9DC07E062683878A1687F1CE4
:100FA0009047206A401C20620B99481E00290B9034
:100FB000F2DC2046FFF7D3FA032042E601FCFFFFF4
:100FC000104D0000E1DFFFFFD21DF0B504460D46D5
:100FD000D0088DB0C000466807683146384602F038
:100FE00075FA0246F00F01D02D2307E02068810733
:100FF00001D52B2302E04007C00F43016846002BB8
:10100000037001D0012000E00020032A0A9001D0E3
:10101000072A04DB2946204600F0D0F92DE120788C
:10102000800601D40D2500E0E5697000400D0D2D0E
:1010300001904BDA300D00210B9008460020C0468D
:10104000032189050840002E05DA82008018C20FAE
:101050001018401008408015012801DD0020C04311
:10106000A9000023182906D39C460A460123183AF2
:101070001B07D34003E001221205CA4094460C31FD
:10108000202902D33A46203900E032468A4000281F
:1010900002DD002A06D119E0002817D10121C90775
:1010A0008A4213D3194663467F185E41002806D151
:1010B0000120C007824202D1084687439E430B9815
:1010C000310D814202D00198401C0190208800051A
:1010D00002D57149794402E06F49794419396B4668
:1010E0000A9830221A540A980A7C401C1A54401C50
:1010F0000A900198002801DC302000E031201872AD
:10110000019A0120002A02D0644BD21804E0720038
:101110003A4302D0614A521C0192002D02DC22782F
:10112000120703D56A462E205072022000228646FE
:1011300094460CE032033601120F6D1E8B5C02AA3E
:1011400013546246521C401C9446052A01DA002DB5
:10115000F0DC002202AE08E03B0F3F01CB5C521CEA
:101160006D1E3354401C082A01DA002DF4DC23687C
:101170009A0601D511E0401E704504DD3218203A70
:10118000D27F302AF7D0002807DD3218203AD27FEC
:101190002E2A02D11A0700D4401E002D03DD3E2264
:1011A0003254401C6D1E497C31540199401C002969
:1011B00006DA2D21471C315401984042019003E08A
:1011C0002B21471C315401987D21C900884206DB40
:1011D000FFF7BEF83030F0557F1C019101E0642824
:1011E00008DB01986421FFF7B3F83030F0557F1C1D
:1011F000019101E00A2806DB01980A21FFF7A8F80F
:101200003030F0557F1C01980A21FFF7A1F83031EA
:10121000F1550A98A1697F1C7A191018081AA06163
:101220002078C00602D42046FFF783F9216A6E4673
:101230000A980818206204E062683078A168761C79
:1012400090470A98401E0A90401CF5D12078C006AD
:1012500002D52046FFF76DF902AE09E03078761C22
:101260003E280DD06268A1689047206A401C206229
:101270007F1EF3D22046FFF772F90DB00320F0BDB8
:10128000206A4019206203E06268A168302090471C
:101290006D1EEDD3F8E70000FC24000001FCFFFF09
:1012A00010B54369002B02D0C046C04601E0FFF7ED
:1012B00079F9012010BD1278014624310A7000220C
:1012C0004A700122ECE711680022D243E8E710B52A
:1012D0004369002B02D0C046C04601E0FFF7F6F993
:1012E000012010BD12880146243182840022C2846C
:1012F0000122ECE711680022D243E8E7F8B5164670
:101300000C46054600F04EF80368FF200230C05C32
:10131000012807D0FF2C0FD8185D00280CD0012021
:101320002C70F8BDFF333246214608331868C718C1
:1013300028460023B847F8BD0020C043F8BD014649
:101340008008081A02091018020A1018020C101856
:10135000C008820012185200891A01E0401C0A39A4
:101360000A29FBD27047754600F0A0FBAE46050087
:1013700069465346C008C000854618B020B5FEF740
:101380008BFF60BCB64600260027C0C5C0C5C0C5DF
:10139000C0C5C0C5C0C5C0C5C0C5403D490849009D
:1013A0008D46704710B500F005F8001D10BD00BF58
:1013B0008521000000487047E8002020F8B51F464E
:1013C000044601230068DB02032601461840072A71
:1013D00005DB002801D017A506E017A504E00028CA
:1013E00001D016A500E016A5102081432160A06958
:1013F000C01E002FA06101D0401EA0612046FFF753
:1014000098F8002F09D038466268A1689047206A92
:10141000401C2062C01C206206E0206AFAE7626875
:101420002878A1686D1C9047761EF8D22046FFF7F9
:1014300096F8F8BD4E414E006E616E00494E460072
:10144000696E6600F7B516468AB0334878446C4634
:1014500003467C33C06F5A689B680DC42E4878449D
:10146000763003AC0DC80DC43720C00108183721F1
:101470001B30FEF76DFF05460C46803D1B3C02D538
:101480006442012000E000200027099010E0E007FE
:101490000CD00C2020497843794432464C3941180D
:1014A0006846012300F054FA6B4607C364107F1CA2
:1014B000002CECD1184F7F442E3F16E0E80712D0E5
:1014C0002001C0190EC80691089307920068F042E7
:1014D00001D1981908903246012306A903A800F00B
:1014E00037FA03AB07C36D10641C002DE6D10998D1
:1014F000002806D032466946012303A800F07EFA90
:1015000005E001233246694603A800F021FA0A9B50
:1015100007C30DB0F0BD0000982100000346400055
:101520000A4610B5400D0BD00121C9070F24A402B3
:1015300000191C0364082143540D2143D20207E023
:1015400000210120F2E7D40F490021435200401E40
:101550000029F8DADB0FDB07184310BDFFB50D4695
:10156000144685B04868516801F097FF00910190DA
:10157000A868A16801F091FF02910390A8686168D2
:1015800001F08BFF029A12188242029201D20120CE
:1015900000E00020019A0B18D2180028019202D016
:1015A0008A4202D903E08A4201D2012000E00020F1
:1015B0000099081800906868A16801F06EFF029A0F
:1015C00012188242029201D2012000E00020019A0A
:1015D0000B18D2180028019202D08A4202D903E0E7
:1015E0008A4201D2012000E00020009908180090F2
:1015F0002868216840004900400849084018FA4915
:10160000471814E001994000C90F08430090019861
:1016100002994000C90F08430190029803994000C5
:10162000C90F08430290039840007F1E0390009862
:101630000028E7DA0898002801D0EC4E00E00026E8
:10164000B74201DA012000E00020002804902AD0EF
:10165000F71BF806C00E15D0029B2021091A039A29
:101660008B401A430392029A019BC2408B401A435B
:101670000292019A009BC2408B4000991A4301924A
:10168000C14000917B110DD06F460320C11A03D5D4
:1016900000218200B95003E08A008100BA587A50D4
:1016A000401EF3D5374603980299002800D0012048
:1016B000014308980291002808460CD0002800D069
:1016C00001200199019A490508430121D20AC90262
:1016D000D202019200E001210E9B0122D207012BD0
:1016E00002D0002B03D013E0002807D120E0904265
:1016F00004D890420CD1019B0B4209D0019B591890
:10170000019105D10099491C009101D17F1C0092E3
:1017100000280DD0102108460020C046049800285B
:1017200006D00F98002803D0082108460020C046A4
:1017300028682168019B009A4840C10F0598C90795
:1017400039430EC009B0F0BDFFB587B0099A0898BB
:101750000899536892684068896896460022039306
:1017600017469446089A12685300099A5B08126853
:10177000520052089A1A9E4BD4180A9A002A01D095
:10178000352200E0402206920022012315460492F1
:10179000DB07059324E0002D05D175460346039E23
:1017A0004D1BB34109D375466646039B491B049DF7
:1017B0009841059B7519AC465F4163463B4308D091
:1017C000059B049EDD0776082E435B08049605936F
:1017D00001E0521E641EC50FED0749184041521C1E
:1017E000069B9A42D7DB002D04D17546039A6B1AEB
:1017F000824101D203200CE0039A0B466B40424029
:10180000134303D0014303D0012002E0022000E093
:101810000020614601910021009702910A99002958
:1018200005D0614640020143704B019102E0800700
:10183000002302909C4201DA012000E00020070012
:101840003AD01A1BD006C00E15D0029D2021019C53
:10185000091AC5408C402543029C8C4000D00124CD
:101860002543019C0295009DC4408D4000992C4366
:101870000194C140009154111DD06D4602210022F7
:1018800002290CD10320001B07E0002804DB86009E
:10189000AE59002E00D00122401C0328F5DB081BA6
:1018A00002D588002A5004E08000285810438A009E
:1018B000A850491EE3D51C460A98002802980CD06F
:1018C000002800D001200199019A4905084301210F
:1018D000D20AC902D202019200E00121109B01222A
:1018E000D207012B02D0002B03D013E0002807D130
:1018F0001FE0904204D890420CD1019B0B4209D0CA
:10190000019B5918019105D10099491C009101D101
:10191000641C009200280CD0102108460020C0460C
:10192000002F06D01198002803D008210846002077
:10193000C04608980999019A009B006809684840C8
:10194000C10F0798C907214382600AC00BB0F0BDE0
:1019500000B585B0019300920A460146002302A813
:10196000FFF7FCFD02A807C805B000BDFFB50A4699
:101970001F4685B00799019301230091014602A8F3
:10198000FFF7ECFD02990398049ECA0F4900D207A5
:1019900000920F22490892028C1A0021002800DBD5
:1019A0000C46450013486D08844214D3079A002A58
:1019B00004DA441E0026104DF64302E004460D46AC
:1019C0000E46102108460020C046002F03D00421F7
:1019D00008460020C0462005E90A0843009908434C
:1019E0006905F20A1143ADE602C0FFFF013C0000A9
:1019F000FF3F0000FF070000FFFFFF7F00B585B03D
:101A0000019300920A460146002302A8FFF79CFEBC
:101A100002A807C8A8E7FFB50A461F4685B0079980
:101A2000019301230091014602A8FFF78DFE029960
:101A30000398049ECA0F4900D20700920F2249085A
:101A400092028C1A0021002800DB0C464500114848
:101A50006D08844214D3079A002A04DA441E002633
:101A60000D4DF64302E004460D460E461021084691
:101A70000020C046002F03D0042108460020C046A5
:101A80002005E90A0843009908436905F20A114351
:101A900058E60000FF070000FFFFFF7F10B5044677
:101AA000C046C0462046FEF7E9FB10BD004870471F
:101AB000C800202082078B079A423FD170B5920F51
:101AC0000AD0032402780B78401C491C002A33D02A
:101AD0009A4231D12042F5D1214EF40104C808C9FF
:101AE000951B9543254018D19A420FD104C808C9C7
:101AF000951B9543254010D19A4207D104C808C9C7
:101B0000951B9543254008D19A42E7D012BA1BBADB
:101B100001209A4200D2404270BD12BA1BBA2DBABF
:101B200018241000E0401900E140401A05D12E00B1
:101B3000E64002D1083CF4D1D01A70BD02780B788F
:101B4000401C491C002A09D09A4207D102780B7820
:101B5000401C491C002A01D09A42EFD0D01A70478D
:101B60000101010101491820ABBEFEE72600020079
:101B70007047811E091F00BFFCD27047F0B57A4A3A
:101B800082183B4BC31808794E793A4D784C002E99
:101B900023D0202804D00526F601002803D003E036
:101BA000354E002800D18826576F2F40374357679E
:101BB000976F2F4037439767566B26405663966B57
:101BC000264096630026566596658F26F6435F6825
:101BD00037405F609F6837409F608E790968202892
:101BE0000BD0002819D1491E5160D76E2F40882193
:101BF0000F43D7661746703719E0491E5160D16E02
:101C000029401D4F3943D166116F2940394311676F
:101C100001214907194D174609E049085160D76E5F
:101C20002F400521C9010F43D766174670373C681E
:101C30002C400C433C60D16A4D4C2140D162116B69
:101C4000214011630021D16411658F21C943D46FF4
:101C50000C40D4671C680C401C600643BD2030401B
:101C60001168074B0B40C018801C1060F0BDC046C7
:101C70008418000024493E0001040000FFFFFFCF4C
:101C80004000FFCFB0B54A68364BC250364A801884
:101C90000A78222A58D8930001A4E3589F46C046E8
:101CA0003F1D0000491D00003F1D0000491D0000B0
:101CB000491D0000491D0000491D0000491D00008C
:101CC000491D0000491D0000491D0000491D00007C
:101CD000491D0000491D0000491D0000491D00006C
:101CE0002D1D0000491D00002D1D0000491D000094
:101CF000491D0000491D0000491D0000491D00004C
:101D0000491D0000491D0000491D0000491D00003B
:101D1000491D0000491D0000491D0000491D00002B
:101D20002D1D0000491D00002D1D000003231B0771
:101D300004689C4301235B07E318036004E003236A
:101D40001B0704689C4304600B69C360CB68074CA5
:101D50001C40C36A064D1D402B19C362097A11430A
:101D60000160B0BD08180000041800007777020079
:101D70008888FDFF10B507239B0419409200801846
:101D8000024A84589C436118815010BD30180000ED
:101D900010B5029CA400001911431943014A815057
:101DA00010BDC0465018000092008018014A8150B2
:101DB0007047C0461018000010B5012212038318A6
:101DC0000C789C604B7883508978014A815010BD13
:101DD0000C110000B0B51122120283580124A34354
:101DE00083500B888C781C438B882343094C1C4000
:101DF0008358094D1D40631983508B79CC791C435E
:101E0000097A21437E231940801842689A43511869
:101E10004160B0BD18670000E798FDFF10B50122D2
:101E2000120383180C789C604978815010BD000023
:101E3000034A801802681206FCD481617047C046CC
:101E40000811000080B51A4800F0C2FD80BDC046F0
:101E5000F0B58FB01648202100F0D8FF0021154CB6
:101E60000246CA40012313406354491C0C29F7D190
:101E7000A0780E9060780D9020780C90E0780A9011
:101E800025796679A779E179227A637AA07A0B902D
:101E9000E47A08940A9800ACE1C404A80EC00B9838
:101EA000079005A00CAB0ECB00F022F80FB0F0BDF0
:101EB000A0002020A0022020477261792044617494
:101EC000612041727261793A2025642025642025C1
:101ED0006420256420256420256420256420256451
:101EE000202564202564202564202564000000004E
:101EF00083B0B0B5C1B0044645914692479345AB17
:101F000000930120010201AD28462246FEF7D2F9D6
:101F100005480649064A2B4600F094FF41B0B0BC84
:101F200001BC03B00047C04600801040983F00004D
:101F3000A03F0000F0B587B00024C94D2146B02075
:101F40000291084303A9087000913C270126284606
:101F500039462246334600F0FCFC04A80470009089
:101F6000284639462246334600F0F3FC05A81021E6
:101F700001700090284639462246334600F0E9FCBD
:101F8000264606A8047000903C21402201232846E2
:101F900000F0DFFC701C46B2002EF2D50299481CFE
:101FA00007290146CBD307B0F0BDC046F0B58FB0CE
:101FB000069205900493994251D20A46159D149CAD
:101FC00006980599401A01900F20084003900809CF
:101FD00010300290002605E0079A521CD0B20499F6
:101FE00088423CD20792503A0AA90A7000913C21DB
:101FF000099100220892012799483B4600F0A9FC6C
:102000000BA802990170009095480999089A3B46DF
:1020100000F09FFC0CA8039901700090F748099903
:10202000089A3B4600F095FC069805998842D3D95A
:1020300001988019C7B20CE00EA9087000913C21EC
:1020400040220123ED4800F084FC761CF0B2874268
:10205000C2D0A05D002DEFD0C0430DA9EDE70FB0B9
:10206000F0BDC046F0B58BB0044602A82E21017029
:102070000090E2483C2500260127294632463B468F
:1020800000F067FC03A804700090DC482946324643
:102090003B4600F05EFC04A806700090D74804465A
:1020A000294632463B4600F054FC05A806700090D5
:1020B0002046294632463B4600F04BFC06A8072442
:1020C00004700090CD48294632463B4600F041FC62
:1020D00007A804700090C9480446294632463B468A
:1020E00000F037FC08A806700090204629463246CA
:1020F0003B4600F02EFC09A8FF210170009020460D
:10210000294632463B4600F024FC0AA82F210170E4
:1021100000902046294632463B4600F01AFC0BB0A0
:10212000F0BDC04670B582B0B44C204600F050FC03
:10213000C82000F02DFE0025074E705D01A9087033
:1021400000913C2100220123204600F002FC6D1C7E
:10215000172DF2D102B070BD7C360000F0B591B001
:102160001C460192069004910846503807A9087051
:102170000091A24D3C2105910027012628463A46B0
:10218000334600F0E6FB06980109103108A80391D8
:1021900001700090284605993A46334600F0D9FB75
:1021A0000F210698014009A802910170009028466D
:1021B00005993A46334600F0CCFB01988001294945
:1021C0000E180CE0F05D0BA9087000913C21402234
:1021D0000123284600F0BDFB7F1C102F05D0002CEA
:1021E000F0D0F05DC0430AA9EEE704994F390CA87E
:1021F00001700090ED4D3C210691002205920127CF
:1022000028463B4600F0A5FB0DA8039901700090FD
:1022100028460699059A3B4600F09BFB0EA80299BA
:102220000170009028460699059A3B4600F091FB04
:1022300020270CE0F05D10A9087000913C2140229D
:102240000123284600F085FB7F1C302F05D0002C91
:10225000F0D0F05DC0430FA9EEE711B0F0BDC0466D
:10226000800020209B3E0000F0B597B044B2E517F7
:10227000AC430F25254007952409102727438009E3
:1022800002240440611808465038203AD2B206921F
:102290001C9E102B3BD1029108A908700091C34CE1
:1022A0003C21059100250120049020462A46049BEC
:1022B00000F04FFB09A8039707700090204605998E
:1022C0002A46049F3B4600F044FB0AA80799017088
:1022D0000090204605992A463B4600F03AFB0698B6
:1022E000000148490F180CE0785D0CA908700091B6
:1022F0003C2140220123204600F02BFB6D1C082DC1
:1023000040D0002EF0D0785DC0430BA9EEE712A9B3
:1023100008700091A54C3C210591002501200490F6
:1023200020462A46049B00F014FB13A80770009077
:10233000204605992A46049F3B4600F00AFB14A854
:10234000079901700090204605992A463B4600F007
:1023500000FB06200699484329490F180CE0785DD8
:1023600016A9087000913C2140220123204600F06C
:10237000F0FA6D1C062D3ED0002EF0D0785DC043E3
:1023800015A9EEE702994F390DA801700090874C0E
:102390003C21059100250120069020462A46069BF7
:1023A00000F0D7FA0EA80399017000902046059915
:1023B0002A46069B00F0CDFA0FA8079901700090FD
:1023C000204605992A46069B00F0C3FA08370CE020
:1023D000785D11A9087000913C214022012320461C
:1023E00000F0B7FA6D1C082D05D0002EF0D0785DF6
:1023F000C04310A9EEE717B0F0BDC0468000202012
:1024000093360000BB380000F0B587B0674800F095
:10241000DFFAC82000F0BCFC0027654CE05D06A98F
:10242000087000913C2100260125604832462B4669
:1024300000F08FFA7F1C172FF0D1FFF77BFD55229C
:102440002F463446334606E0059B5AA1CA5D7F1CE1
:102450000B2F044612D00095E0B20593D9B2D2B248
:102460001023FFF701FF0834E1B27829304600D885
:1024700020467829E8D9059B5B1CE6E70224002763
:10248000752201263D4604E04DA0825D761C0F2E8C
:1024900010D00097E8B2E1B2D2B20C23FFF7E4FE0D
:1024A000A91DC8B27A283D4600D80D467A28EBD936
:1024B000641CE9E704260024012520463146224613
:1024C0002B46FFF74BFE10200490314603962A4618
:1024D0002B46FFF743FE2027022202923846314660
:1024E0002B46FFF73BFE0626204631462246234672
:1024F000FFF734FE049831462A462346FFF72EFEA6
:10250000384605963146029A2346FFF727FE009487
:102510003027362238460399049BFFF7A5FE26464E
:102520000FE00126012000903943CAB205986043AC
:102530003030C0B207210C23FFF796FE641C022C3A
:102540001AD0012C294606D00121081B0A2251432A
:10255000401E0206FAD14D2000F0A4FE0A21FDF72C
:10256000E9FE20463043DDD10029DAD10120009078
:10257000302007212022DEE700210191144F00972F
:102580005A247A25042620462A463346FFF70EFDB4
:102590000120009701900823204631462A46FFF784
:1025A00005FD2620FFF75EFD07B0F0BD800020206E
:1025B0007C360000554E49434F524E5F4C49000057
:1025C000756E69636F726E5F6C695F3132330000E4
:1025D00000002020000000000000000000000000BB
:1025E000EFF309800E4B1A6820381060F0C04446A3
:1025F0004D4656465F46F0C008B572B600F0DAFCAC
:1026000062B60CBC116808681030F0C8A046A94634
:10261000B246BB4680F309882038F0C81847C04648
:10262000AC0220207047000010B5F249872088676F
:1026300001208203104802608822CA610F4A0823E1
:10264000136084234B638023136082230B62102466
:1026500014600B650A4B4B6581230B604B608B63E9
:10266000CB631146303903230B60136001463039C8
:102670000C220A60026010BDD0320A40D0120A401B
:102680008200040070B582B0194C1A492046FFF749
:1026900093FB19492046FFF771FA00250095204663
:1026A00029462A462B46FFF773FB204629462A4631
:1026B000FFF760FB204629462A46FFF775FB0126F7
:1026C0000096204629462A462B46FFF761FB204606
:1026D00029463246FFF74EFB204629463246FFF791
:1026E00063FB064886600321016002B070BDC046EE
:1026F000000086405B3F0000603F00000011864004
:1027000070B582B0194C1A492046FFF755FB19499C
:102710002046FFF733FA00250095204629462A4631
:102720002B46FFF735FB204629462A46FFF722FBBA
:10273000204629462A46FFF737FB01260096204609
:1027400029462A462B46FFF723FB204629463246D8
:10275000FFF710FB204629463246FFF725FB0648C7
:1027600086600321016002B070BDC04600000940D0
:10277000683F00006C3F0000001109400448002140
:102780000160044801680322914301607047C0461C
:1027900008030B4000010B4010B5084C08492046C7
:1027A000FFF70AFB07492046FFF76CFA0648016865
:1027B0000122114301600548026010BD00208640DF
:1027C000743F0000783F0000283086400831864082
:1027D00010B5124C12492046FFF720FB1149204644
:1027E000FFF7F8FA0320C1030F4802688A4302602A
:1027F00001690E4A0A4011320261416917220A43F7
:1028000028218A4342614168012211404368934371
:102810005918416001681143016010BD00801040EB
:102820008C3F00008E3F0000009110400000FFFF31
:1028300080B500F017F8FFF7F7FEFFF79FFFFFF7EF
:1028400021FFFFF75DFFFFF7A7FFFFF7C1FFB820EC
:10285000024900220A5402490A5480BDE4012020A2
:102860002801202070B50C480C4941600C4A516089
:102870000C4B59600C4C61600C4D69600C4E7160E2
:102880000C490160116019602160296031601020DD
:10289000FFF76FF970BDC04600080A40030000B1A1
:1028A00000280A40000886400008094000288640A9
:1028B0000088104001000026F0B583B004460320D4
:1028C000002B44D0002C42D0089F002F3FD01E4642
:1028D0000D460192204600F069F96D00E9B22046EC
:1028E00000F022F9204600F0D5F9022102910028DB
:1028F00029D02046019900F017F9204600F0CAF9C6
:10290000002820D0204600F051F901200543E9B20B
:10291000204600F009F9204600F0BCF9002812D04A
:1029200000200290002E0ED0204600F065F838708E
:10293000F0B2401E41424141204600F0C1F87F1CE8
:10294000761E3006F0D1204600F070F9029803B0F0
:10295000F0BDF0B581B004460320002B36D0002C2A
:1029600034D0069D002D31D01E460F4600922046E1
:1029700000F01CF97806010E204600F0D5F820463C
:1029800000F088F9022700281CD02046009900F0AA
:10299000CBF8204600F07EF9002813D00020002E4E
:1029A0000FD000902978204600F0BEF8204600F0B5
:1029B00071F9002806D0761E6D1C002EF2D1009F02
:1029C00000E00746204600F031F9384601B0F0BD7E
:1029D00000280DD081688900E34A81238B5041692A
:1029E00089008B5006C8DF4BCA5041688068C850C8
:1029F0007047C04604804240F0B581B000285AD0EC
:102A0000044680688000D84B8121C15005CCD54D4B
:102A10004251083CA2689200D15061684151415135
:102A2000A06900F0DAF9A06900F0D7F900273D4667
:102A300003E035437F1C082F3ED003CCC94A8150A8
:102A40002069083C00F0C9F9A0688000C649C74E5B
:102A50000E50A06900F0C1F9E0682169C14E8151B2
:102A6000A06900F0BAF9A06900F0B7F903CC815170
:102A70002069083C00F0B1F9A0688000BA49BB4A5F
:102A80000A50A06900F0A9F92720C0012168085860
:102A9000009095204001E16822690A506668A069AB
:102AA00000F09BF9A06900F098F900980640C0D0AA
:102AB0008026FE40BDE70025E8B201B0F0BDC0466B
:102AC00070B500282FD082689200A74B8124D45083
:102AD00044C8A44D565108388668B600F45043687F
:102AE000535195246401002901D0511900E01119B6
:102AF0000B6081690646084600F06FF9B06900F086
:102B00006CF9F06831694151B06900F066F9B0695B
:102B100000F063F9F06831690151B06900F05DF9C6
:102B2000B06900F05AF970BDF0B583B00291002889
:102B300039D00546806880008B498122019242503D
:102B400003CD884E81510024083D1CE0891908609E
:102B5000A86900F042F9A86900F03FF9E86829691E
:102B60008151A86900F039F9A86900F036F9E868E0
:102B70002969C151A86900F030F9A86900F02DF960
:102B8000641C082C0FD0A86880007749019A0A506D
:102B900029686868885195225701029AA240120656
:102BA000D4D4C919D3E703B0F0BDC046F0B581B0A5
:102BB000002838D0816889006B4D81264E5106C8A7
:102BC000684FCA5108388268920056514268CA510B
:102BD000CA5181690446084600F0FFF8A06900F078
:102BE000FCF8E0682169C151A06900F0F6F8A0691D
:102BF00000F0F3F8A0688000465103CCC151C01921
:102C000001612069083C00F0E8F8A06900F0E5F8EF
:102C100095204001E16822690A50A06900F0DDF8C2
:102C2000A06900F0DAF801B0F0BDC046F0B581B09F
:102C300000282DD0816889004B4C81250D5106C894
:102C4000484E8A51083882689200155142688A516C
:102C500089190A6181690746084600F0BEF8B8691B
:102C600000F0BBF8F86839698151B86900F0B5F82F
:102C7000B86900F0B2F8B8688000055103CF8151FF
:102C800081513869083F00F0A8F8B86900F0A5F84C
:102C900001B0F0BDF0B583B004460020002C50D048
:102CA000019003CC2F4A815026696069029030461A
:102CB000083C00F092F8A06880002B4F2B4DC551C6
:102CC000A06900F08AF8E0682169264A8150A0696D
:102CD00000F083F8A06900F080F80298314600F017
:102CE000E1FA064603CC1F4A81502069083C00F0F7
:102CF00074F8A06880003D50A06900F06EF82720AD
:102D0000C00106CC0858083C104206D0002E1ADD3F
:102D1000A06900F062F8761EE4E7A06880008121D7
:102D2000395003CC0F4A815095204001083CE1689E
:102D300022690A50A06900F050F8A06900F04DF82F
:102D4000012003B0F0BDA06880008121395003CC80
:102D5000044A8150083C2046FFF768FF019803B001
:102D6000F0BDC046901200000480424081000E0079
:102D700010B500F063F8044600F092F9002803D083
:102D80000120000770490860204600F08FF810BD50
:102D9000B0B5002820D00446EFF30580002807D006
:102DA0007D2005022846FEF7E4FE641EFAD113E0FA
:102DB00000F068F9022808D17D20C1004C4320466C
:102DC00000F070FA00F0C2F8B0BD7D200502284680
:102DD000FEF7CFFE641EFAD1B0BD10B5002805D0B5
:102DE00004462020FEF7C5FE641EFAD110BDFFF791
:102DF0001FFDFFF727F8FFF795F9FFF705FBFFF732
:102E000027F87D20C000FFF7C3FFF8E710B582B0B8
:102E100000280FD001AA0092002402232246FFF7C7
:102E20004BFD002807D101A8017840780007000D6C
:102E3000441800E00024204602B010BDEFF31080DB
:102E400072B6704782B070B5C2B00D460446469265
:102E5000479346AB01930120010202AE30462A4659
:102E6000FDF728FA3046FDF743FA002808D005465A
:102E700002AE31782046FEF7DBFF761C6D1EF8D1DE
:102E800042B070BC01BC02B00047416882688A60F1
:102E9000516001694B68834200D14A600A68521E42
:102EA0000A600022026108687047FEE780F310881C
:102EB0007047B0B50B685A1C0BD0044608346268E2
:102EC00015689D4208D8546825689D422546F6D964
:102ED00004E00269556801E015462246A9600861D0
:102EE0004D608A6051600168491C0160B0BD426854
:102EF0004A6093688B600861596003685B1C0360DB
:102F00009160704772B60A480168491C0160BFF3BE
:102F10004F8FBFF36F8F704705480168002903D0BA
:102F2000491E016002D0704772B6FEE762B6704774
:102F3000C00020200120000703490860BFF34F8F25
:102F4000BFF36F8F7047C04604ED00E070B50028F6
:102F50002CD0CA490A68002A01D072B6FEE70A6876
:102F6000521C0A608C490C68C94D2968091D064627
:102F70000846FFF78AFFA4192868446006D38748EB
:102F800000682968091DFFF794FF0AE0C24800683D
:102F90002968091DFFF78DFFC04801688C4200D2E7
:102FA000046000F0FFF8002800D070BDFFF7C2FFFA
:102FB00070BDC046F0B581B0B0480068002802D0AE
:102FC000B44801212CE0B34800210160B04C2068D6
:102FD000006B02682A498A4208D142688A4205D1B8
:102FE00082688A4202D1C068884204D02068216881
:102FF0003431FFF75AFFA448016814231A464A43A4
:10300000A24DAE58002E0ED0AA1853685B685360CC
:1030100015460835AB4201D15B685360DA6822601F
:10302000016001B0F0BDAA1800291DD01E464E4314
:1030300076191746143F3F68002F17D1012913D086
:103040001746283F3F68002F13D102290CD017469E
:103050003C3F3F68002F0FD1032905D0091F503A8C
:103060001668002EE0D0D0E772B6FEE7143E491E87
:1030700004E0283E891E01E03C3EC91E3246C4E7FA
:10308000A5A5A5A505480068002805D07B480068CF
:10309000414241414800704701207047AC03202065
:1030A000F0B583B075480068002806D07C480168F8
:1030B000491C0160002003B0F0BD374801684C1C7A
:1030C00004601BD3744801680968002901D072B6F6
:1030D000FEE70168314A13680360116030490A68ED
:1030E000521C0A6001680968002903D00068C068A2
:1030F000006801E00020C04368490860674908682B
:10310000844201D200203FE00023DA43624E30685F
:10311000006800282FD001920020029003E0306860
:10312000006800282CD03068C068C768786884427E
:1031300023D33D1D2846FFF7A8FEB86A002803D018
:1031400038461830FFF7A1FEF86A4F4909688842EF
:1031500001D94D490860142141434C484018294683
:10316000FFF7C5FEF86A4A490968C96A8842D6D39A
:1031700001200290D3E7029304E00246474901E0B0
:103180004649019A0A60029842490968002992D08A
:10319000012003B0F0BDC046B0032020B4022020BF
:1031A00090032020F0B581B0344C206800280DD069
:1031B000FFF7A8FE2068401E206020680027002836
:1031C00006D0FFF7A9FE384601B0F0BD72B6FEE7A3
:1031D0002B4800680028F4D02A4E3068002833D0ED
:1031E0000097294F02E0306800281FD0F068C468BB
:1031F00020461830FFF749FE251D2846FFF745FEFB
:10320000E06A3968884200D93860142141431F4878
:1032100040182946FFF76BFEE06A1D490968C96A34
:103220008842E0D301201B490860DCE71A480168A6
:103230000968002903D00068C068006801E0002028
:10324000C043009F15490860154C2568002D0CD01F
:10325000104E01E06D1E06D0FFF722FF0028F9D0C6
:1032600001203060F6E7002020600A48006800284E
:10327000A7D0FFF75FFE0127A3E7C0468403202005
:10328000800320209803202088032020B8022020DB
:10329000AC022020B4032020B00220208C03202088
:1032A0009403202043088B421AD3002203098B4247
:1032B00079D3030A8B425ED3030B8B4242D3030CB8
:1032C0008B4227D30902FF2212BA030C8B4202D38E
:1032D0001212090203D0030B8B4233D31AE0D3E05E
:1032E000411A8041401C704703460B4371D4430888
:1032F0008B42F5D3002203098B4254D3030A8B423D
:1033000039D3030B8B421DD3030C8B4202D394465B
:103310006EE0090AC30B8B4201D3CB03C01A5241A2
:10332000830B8B4201D38B03C01A5241430B8B4258
:1033300001D34B03C01A5241030B8B4201D30B0341
:10334000C01A5241C30A8B4201D3CB02C01A524168
:10335000830A8B4201D38B02C01A5241430A8B422B
:1033600001D34B02C01A5241030A8B4201D30B0214
:10337000C01A5241CDD2C3098B4201D3CB01C01A2E
:10338000524183098B4201D38B01C01A5241430938
:103390008B4201D34B01C01A524103098B4201D326
:1033A0000B01C01A5241C3088B4201D3CB00C01A93
:1033B000524183088B4201D38B00C01A524143080B
:1033C0008B4201D34B00C01A5241411A52411000A6
:1033D0007047CA0F00D04942031000D34042534007
:1033E00000229C4603098B422DD3030A8B4212D341
:1033F0008901FC2212BA030A8B420CD38901921173
:103400008B4208D3890192118B4204D3890137D0B2
:10341000921100E08909C3098B4201D3CB01C01A84
:10342000524183098B4201D38B01C01A5241430997
:103430008B4201D34B01C01A524103098B4201D385
:103440000B01C01A5241C3088B4201D3CB00C01AF2
:10345000524183088B4201D38B00C01A5241D9D20A
:1034600043088B4201D34B00C01A5241411A00D28B
:1034700001465241104663465B1000D340427047FC
:1034800063465B1000D3404201B50021004201D0E9
:10349000C9430846C046C04602BDF8B5040C8BB20D
:1034A000264682B25E43104658430D0C370C360454
:1034B00000218019164679416E43370C3604801975
:1034C000264679416E438919F8BD00004900CA02B9
:1034D0000243100000D004204A0D01D00122104305
:1034E000044A490D914201D102210843012800D12B
:1034F00005207047FF07000030380A2801D201205C
:10350000704700207047000010B500290AD00878E5
:10351000002807D005487844FEF7CCFA002801D0EF
:10352000002010BD0248784410BD0000B20A00001F
:10353000AA0A000010B500290AD00878002807D090
:1035400005487844FEF7B6FA002801D0002010BDE7
:103550000248784410BD0000A20A00009A0A000048
:1035600003B402487844844603BC6047E9D7FFFFB0
:1035700003B402487844844603BC604751DAFFFF35
:10358000000000000000000030313233343536379F
:103590003839414243444546403058003031323397
:1035A0003435363738396162636465664030780097
:1035B00004000008000000000000000200010000FC
:1035C00010303132333435363738396162636465EF
:1035D000667870003031323334353637383941420D
:1035E000434445465850000002400000000000A03F
:1035F0000000000005400000000000C800000000BE
:103600000C4000000000409C000000001940000039
:103610000020BCBE0000000034400000BFC91B8E6B
:1036200000000004B5400000504BCFD06607E2CF49
:10363000010000006C4100003E8251AADFEEA73479
:1036400001000000D9420000DCB5A0E23A301F972B
:10365000FFFFFFFFB4450000FD25A0C8E9A3C14F4F
:10366000FFFFFFFFFF3F00000000008000000000A0
:10367000FF3F00000000008000000000AED580A8E1
:103680003FD30040A1C8DA1281CFD9F1DB40A4A614
:103690008D14AF0000000000000000002F000000AB
:1036A000000700070000147F147F1400242A7F2ADB
:1036B00012006264081323003649552250000005A9
:1036C00003000000001C224100000041221C0000F9
:1036D00014083E08140008083E0808000000A06016
:1036E00000000808080808000060600000002010C2
:1036F000080402003E5149453E0000427F40000060
:103700004261514946002141454B31001814127F56
:1037100010002745454539003C4A494930000171B0
:1037200009050300364949493600064949291E0062
:103730000036360000000056360000000814224112
:103740000000141414141400004122140800020193
:1037500051090600324959513E007C1211127C0079
:103760007F49494936003E41414122007F41412283
:103770001C007F49494941007F09090901003E4178
:1037800049497A007F0808087F0000417F41000016
:103790002040413F01007F08142241007F4040400B
:1037A00040007F020C027F007F0408107F003E4132
:1037B00041413E007F09090906003E4151215E005A
:1037C0007F091929460046494949310001017F0115
:1037D00001003F4040403F001F2040201F003F406D
:1037E00038403F006314081463000708700807009E
:1037F000615149454300007F41410000552A552A47
:1038000055000041417F00000402010204004040D5
:10381000404040000001020400002054545478004D
:103820007F484444380038444444200038444448E5
:103830007F00385454541800087E0901020018A46F
:10384000A4A47C007F080404780000447D400000AC
:103850004080847D00007F102844000000417F40AC
:1038600000007C04180478007C08040478003844C4
:1038700044443800FC242424180018242418FC0094
:103880007C0804040800485454542000043F444079
:1038900020003C4040207C001C2040201C003C407C
:1038A00030403C004428102844001CA0A0A07C000C
:1038B0004464544C44141414141414000000000004
:1038C0000000000000000000000000000000F80000
:1038D000000000000000333000000000100C061053
:1038E0000C0600000000000000000040C07840C04E
:1038F000784000043F04043F040400007088FC0882
:10390000300000001820FF211E0000F008F000E049
:1039100018000000211C031E211E0000F008887002
:103920000000001E2123241927211010160E00006C
:103930000000000000000000000000000000E0188F
:10394000040200000000071820400000020418E0F4
:103950000000000040201807000000404080F08078
:103960004040000202010F01020200000000F000CE
:103970000000000101011F01010100000000000022
:1039800000000080B0700000000000000000000097
:103990000000000001010101010101000000000020
:1039A0000000000030300000000000000000008037
:1039B000601804006018060100000000E01008080C
:1039C00010E000000F102020100F00001010F80071
:1039D0000000000020203F202000000070080808A0
:1039E00088700000302824222130000030088888A8
:1039F0004830000018202020110E000000C02010C8
:103A0000F8000000070424243F240000F8088888F8
:103A10000808000019212020110E0000E0108888FD
:103A2000180000000F112020110E0000380808C8EF
:103A30003808000000003F000000000070880808FF
:103A4000887000001C222121221C0000E0100808C0
:103A500010E0000000312222110F00000000C0C061
:103A60000000000000003030000000000000800076
:103A70000000000000806000000000000080402086
:103A8000100800000102040810200040404040409F
:103A90004040000404040404040400000810204012
:103AA000800000002010080402010000704808088F
:103AB00008F0000000003036010000C030C828E8DF
:103AC00010E0000718272423140B000000C038E082
:103AD000000000203C23020227382008F88888884C
:103AE000700000203F202020110E00C03008080880
:103AF000083800071820202010080008F8080808D7
:103B000010E000203F202020100F0008F88888E8EF
:103B1000081000203F20202320180008F88888E89B
:103B2000081000203F200003000000C030080808F3
:103B300038000007182020221E020008F8080000A4
:103B400008F808203F210101213F20000808F8085B
:103B50000800000020203F2020000000000808F896
:103B6000080800C08080807F00000008F888C02816
:103B7000180800203F20012638200008F80800001F
:103B8000000000203F20202020300008F8F800F836
:103B9000F80800203F003F003F200008F830C00038
:103BA00008F808203F200007183F00E01008080828
:103BB00010E0000F10202020100F0008F80808085F
:103BC00008F000203F210101010000E01008080872
:103BD00010E0000F18242438504F0008F888888817
:103BE000887000203F2000030C30200070880808F7
:103BF0000838000038202121221C00180808F80885
:103C00000818000000203F2000000008F80800000D
:103C100008F808001F202020201F000878880000D6
:103C2000C83808000007380E010000F80800F80046
:103C300008F800033C0700073C0300081868808070
:103C400068180820302C03032C30200838C800C81E
:103C50003808000000203F2000000010080808C8B5
:103C60003808002038262120201800000000FE021D
:103C70000202000000007F40404000000C30C00005
:103C8000000000000000010638C00000020202FE31
:103C9000000000004040407F0000000000040202DD
:103CA000020400000000000000000000000000000E
:103CB00000000080808080808080800002020400FC
:103CC0000000000000000000000000000080808074
:103CD0008000000019242222223F2008F800808062
:103CE000000000003F112020110E00000000808025
:103CF000800000000E1120202011000000008080B4
:103D000088F800000E112020103F200000808080E5
:103D1000800000001F222222221300008080F088F1
:103D20008888180020203F2020000000008080802C
:103D3000808000006B94949493600008F800808069
:103D4000800000203F210000203F20008098980044
:103D50000000000020203F2020000000000080988C
:103D600098000000C08080807F000008F80000807C
:103D7000808000203F24022D302000000808F80039
:103D80000000000020203F202000008080808080F4
:103D9000808000203F20003F20003F808000808006
:103DA000800000203F210000203F20000080808014
:103DB000800000001F202020201F008080008080C5
:103DC00000000080FFA12020110E00000000808074
:103DD000808000000E112020A0FF80808080008065
:103DE00080800020203F2120000100000080808092
:103DF0008080000033242424241900008080E08087
:103E00008000000000001F202000008080000000D3
:103E1000808000001F202020103F20808080000034
:103E200080808000010E3008060100808000800044
:103E30008080800F300C030C300F000080800080E9
:103E40008080000020312E0E312000808080000014
:103E500080808080818E70180601000080808080C4
:103E60008080000021302C222130000000000080E2
:103E70007C020200000000003F40400002027C8003
:103E80000000000040403F0000000000000000FF74
:103E900000000000000000FF00000040221408F4B1
:103EA0000200F80808FF0808F80000000000000001
:103EB0000000000000000000000000084482413FB4
:103EC00000206321213F2129336000000000000011
:103ED00000000000000000000000002010E824277F
:103EE0002424E424342C20E0000000000000000022
:103EF000000000000000000000000080601F0909B1
:103F000009097F090949897F0000000000000000BD
:103F1000000000000000000000000000007C54557C
:103F200056547C545655547C00000000000000009C
:103F30000000000000000000000000010101FD453C
:103F4000454545454545FD010101000000000000D3
:103F50000000000000000000000000080700000052
:103F6000B80B00002001010008070000B80B00009A
:103F700020000100080762000000000000000000AF
:103F80000000000000000000000000000800000029
:103F9000180000000030000025732025730D0A0072
:103FA0005B494E464F5D0000F840000000002020B5
:103FB000C800000020010000C0410000C80020200F
:103FC000F0030000480100001C0000004300000056
:103FD000F8FFFFFF0C0000000E0000000F000000C3
:103FE0002E0000001001000043000000F8FFFFFF5A
:103FF00000404040404040404040414141414140FC
:1040000040404040404040404040404040404040B0
:10401000400502020202020202020202020202023F
:104020000220202020202020202020020202020244
:10403000020290909090909010101010101010109C
:1040400010101010101010101010101002020202A8
:1040500002028888888888880808080808080808EC
:1040600008080808080808080808080802020202E8
:104070004000000000000000000000000000000000
:104080000000000000000000000000000000000030
:104090000000000000000000000000000000000020
:1040A0000000000000000000000000000000000010
:1040B0000000000000000000000000000000000000
:1040C00000000000000000000000000000000000F0
:1040D00000000000000000000000000000000000E0
:1040E00000000000000000000000000000000000D0
:1040F00000000000000000000000000000000000C0
:104100000080800040E0E06000408000000080808F
:104110006060100000000000000000000090B26627
:104120006EECC98302004080000C0C0103070F11E4
:1041300020408000000000000000000008183B370D
:1041400066EEEECC8880000001020408101010100A
:1041500010100F0000000000003E4040403E007E76
:104160000408107E007E003C42424242007E4242F1
:10417000427E007E0408107E00200A4008000000F5
:104180000F00000000200A40040000000E000000A4
:1041900000000000E803000000000A4002000000E8
:1041A0000100000000000A400100000000000000C3
:1041B00000000000E8030000AAAAAAAA000000006C
:04000005000000C136
:00000001FF
