:020000040000FA
:1000000088302020C1020000C5020000C7020000A5
:1000100000000000000000000000000000000000E0
:10002000000000000000000000000000593E000039
:100030000000000000000000513C00006D43000083
:10004000CF02000079350000CF020000CF0200008F
:10005000CF020000CF020000CF020000CF0200005C
:1000600000000000CF020000CF02000000000000EE
:1000700000000000CF020000CF020000CF0200000D
:10008000CF020000CF020000CF020000CF0200002C
:10009000CF020000CF0200000000000000000000BE
:1000A000CF020000CF0200000000000000000000AE
:1000B000CF02000000000000CF020000CF020000CD
:1000C00000F002F800F0D1F812A030C80838241867
:1000D0002D18AC4201D100F0C8F80FCCA246AB46B7
:1000E0000CA730CF2D1B083F3F197C427F1E544484
:1000F0002D090426F441641EAC4201D300F0B5F88A
:100100000126334200D0FB1A3343984754465D46DC
:10011000DFE70000647D0000847D00000000000037
:10012000103A02D378C878C1FAD8520701D330C840
:1001300030C101D504680C60704700000000000069
:100140007047000000000000002300240025002666
:10015000103A01D378C1FBD8520700D330C100D583
:100160000B60704710B56E2902D100F095FD10BDEF
:10017000702902D100F0D1FE10BD662902D107F02E
:1001800089FD10BD652902D107F084FD10BD6729E6
:1001900002D107F07FFD10BD612902D107F082FD79
:1001A00010BD03681B0A01D380231943692902D1BA
:1001B00000F03CFD10BD642902D100F037FD10BDF8
:1001C000752902D100F032FD10BD6F2902D100F077
:1001D0004FFE10BD782902D100F08CFE10BDE92938
:1001E00002D100F0EBFD10BDE42902D100F0E6FDE4
:1001F00010BDF52902D100F0E1FD10BDEF2902D1BB
:1002000000F042FE10BDF82902D100F081FE10BDC1
:100210000368DB0901D380231943632902D101F06C
:1002200032FC10BD732902D101F035FC10BDE32969
:1002300002D101F03FFC10BDF32902D101F042FCD4
:1002400010BD002010BD1FB501F0D4FC040000203B
:10025000002107F079FB401C60600020002107F0BE
:100260005DFBE0601FBD10B510BD01F09BFC1146A9
:10027000FFF7E9FF04F01AFD02F030F803B4FFF7CE
:10028000F2FF03BC02F0DAF870B505460C461646DC
:1002900002E00FCC0FC5103E102EFAD2082E02D36A
:1002A00003CC03C5083E042E07D301CC01C5361F7D
:1002B00003E021782970641C6D1C761EF9D270BD94
:1002C00006480047FEE7FEE7FEE7FEE7FEE7FEE73B
:1002D00003480449024A044B70470000C100000073
:1002E000882F202088302020882F2020434351430E
:1002F00030B55C18010C130C0D4692B25D4380B210
:1003000051432C19054655430A0C09044D19624105
:100310005843010C00044019514130BD7CB51D46C5
:1003200016460C00009007D04142A14202D30019AA
:10033000401E01E00020C043064B7B442A4669462C
:100340000190304600F0C1FC002C02D0009A002140
:1003500011707CBDB309000030B5441C03E0017886
:10036000401C00290DD08107F9D10B4BDD0104C8D9
:10037000D11A91432940FAD0001B0A0603D0C01EAF
:1003800030BD001B30BD0A0401D0801E30BD090203
:10039000FCD0401E30BD000001010101F8B5042A67
:1003A0002CD3830712D00B78491C0370401C521EBB
:1003B00083070BD00B78491C0370401C521E830727
:1003C00004D00B78491C0370401C521E8B079B0FF6
:1003D00005D0C91ADF002023DE1B08C90AE0FFF799
:1003E00053FFF8BD1D4608C9FD401C46B4402C43D0
:1003F00010C0121F042AF5D2F308C91A521EF0D4F5
:100400000B78491C0370401C521EEAD40B78491C1F
:100410000370401C012AE4D409780170F8BDD2B2FF
:1004200010B513029A1813049A1800F047FE10BD75
:10043000002203098B4273D3030A8B4258D3030B68
:100440008B423CD3030C8B4221D312E003460B4377
:100450007FD4002243088B4274D303098B425FD3BD
:10046000030A8B4244D3030B8B4228D3030C8B42E9
:100470000DD30902FF2212BA030C8B4202D31212CF
:10048000090265D0030B8B4219D300E0090AC30BA4
:100490008B4201D3CB03C01A5241830B8B4201D351
:1004A0008B03C01A5241430B8B4201D34B03C01A3A
:1004B0005241030B8B4201D30B03C01A5241C30AB2
:1004C0008B4201D3CB02C01A5241830A8B4201D323
:1004D0008B02C01A5241430A8B4201D34B02C01A0D
:1004E0005241030A8B4201D30B02C01A5241CDD2B2
:1004F000C3098B4201D3CB01C01A524183098B42FD
:1005000001D38B01C01A524143098B4201D34B01E5
:10051000C01A524103098B4201D30B01C01A524148
:10052000C3088B4201D3CB00C01A524183088B42CF
:1005300001D38B00C01A524143088B4201D34B00B8
:10054000C01A5241411A00D201465241104670472A
:100550005DE0CA0F00D04942031000D3404253402F
:100560009C46002203098B422DD3030A8B4212D3EF
:100570008901FC2212BA030A8B420CD38901921121
:100580008B4208D3890192118B4204D389013AD05E
:10059000921100E08909C3098B4201D3CB01C01A33
:1005A000524183098B4201D38B01C01A5241430946
:1005B0008B4201D34B01C01A524103098B4201D334
:1005C0000B01C01A5241C3088B4201D3CB00C01AA1
:1005D000524183088B4201D38B00C01A5241D9D2B9
:1005E00043088B4201D34B00C01A5241411A00D23A
:1005F00001465241104663465B1001D34042002B36
:1006000000D54942704763465B1000D3404201B5B4
:100610000449002802DC491C084000E00846C046A6
:10062000C04602BDFFFFFF7F704770477047000064
:100630000246C80FC00781434B0030B54B405B00FA
:100640009B0D20D01923DB06C91801231B059942F5
:1006500020DB0324A40704251346AB400BD3002B57
:1006600004D1EB0613409B00E34204D40124640749
:10067000002312195941FF231B0599420BD2C900CF
:100680000143500F09E0CB0204D5014308030243A4
:1006900005D0054830BDFF21C905084330BD0846D7
:1006A00007210905884330BD0000C07FF0B58B4CA1
:1006B0000F09254689B0BD437BD01D092646AE43B0
:1006C000FAD00E465E402740F60F3E43254071D0DB
:1006D00024012142FBD0FF24AD19A4042D1B039556
:1006E00001252D05DB02DB0AC9022B43C90A294378
:1006F0001E010901040F130F050121431701880B87
:10070000820391432D098C46A90B1E438A0395430E
:10071000B30B9A0396433F09BA0B9403A74302967F
:100720002E467E430497B6464E19D7190C460196BD
:10073000544305977E43371B7646BF1B3601B646AA
:10074000BE0B361900967646BC043719009C01D3BF
:10075000641C00946400002F01D001263443029EE3
:10076000049F754366467E430496760034196E00F6
:1007700034190094029C019E1C196643751BAE46F9
:10078000069465464519059C05956C435943754685
:100790000891691A0191049E01465143A41B0491DA
:1007A000611A009C0791E10605D0610901221143FD
:1007B00002E072E06EE06109089D00272C0A2D0618
:1007C0006918049D7C412A0A2D066918019D624121
:1007D000AC0DAD026D185441079A910D9202551956
:1007E0006141029A644658435443069B059A5A4312
:1007F000121A131B9A0E9B015B187A41010B00051C
:10080000C3185141220A200644195A419A4200D283
:10081000491C01204002814203D315230226F643DE
:1008200002E014230326F6432020C51AA9401746E8
:10083000AF40DA400A4320460399D84009147318A0
:1008400019055118039A3843D2075140AC4009D0DA
:100850000122944006D30022401C5141002C01D1BA
:10086000400840001E4A934212D301220398920688
:10087000904207DB0520400709181A480143C012BF
:10088000414004E0032040070818C10FC9070020B9
:1008900009B0F0BD0020F107FAE705180C464C41FD
:1008A00011486D42A04115D394181A465A410E487A
:1008B000644290410ED301204A004005824209D390
:1008C0005A00824206D35940C90F084AC90700207E
:1008D0001143DDE700200649DAE700000000FF07CA
:1008E000FE070000FFFFFF7F0000E0FF0000F07F39
:1008F0000000F87F0121C9050123411842001B06B1
:10090000D3185B0E0AD0C1100722D20689184007FF
:100910005242D14201D5520089187047090208D5C8
:100920000146002A03D0C10FC907002070471046B6
:100930007047420202D00020024970470721090592
:100940000143F4E70000F87FF0B5FF252D04C60948
:10095000C209FF2704462E400137CB093E434840D9
:100960002A402B400746002A6BD0002B69D0AA42B0
:1009700067D0AB4265D0002800DA32460125ED058C
:1009800029432C4309022002090AD21A4B0C7F2466
:10099000E31A434C000A7C44E35C7D2424041219CE
:1009A00014145B00A218884201D3521C00E04000DE
:1009B00049420C465C4324115C43DB016415E31897
:1009C000040A5C43C502200D0C4644436419250A01
:1009D0005D432303EC0C0D46654300030019EB183F
:1009E0004C42A34201D35B18401CD4052018002BB5
:1009F00007D05B00C91804D3401C002901D140086E
:100A000040003F2189048A4209D3002A08DC1106EC
:100A1000090F04D0032149074018C00FC007F0BDDB
:100A200001224100120689187F2252069142F6D215
:100A300005214907C84201D59010F0BDFF20C0052F
:100A4000F0BD002F00DA32461648AA4207D2AB4268
:100A500005D21902090E17D0F80FC007F0BDFF2507
:100A600063002D06AB42F9D84900A942F6D8AB4243
:100A700001D1A942F2D0A94201D1002101E06100D7
:100A80004908D0050843F0BD1102090EFBD0FF2034
:100A90000243D005F0BD0A460146104654E7000067
:100AA0001A7300000000C07F10B501469E240002AA
:100AB000CA15A307002A02D01843002A04DBA21A91
:100AC000002A0CDDD04010BD1206120E01D14000EC
:100AD0004008A21A03D4D04040420028F3DDFF2290
:100AE00048001206904201D9002010BDC817C0432B
:100AF000584010BD1F22030C02D10F2200041CD04D
:100B0000030E01D10002083A030F01D10001121FA8
:100B1000830F01D18000921E002801DB4000521E8D
:100B2000D2055118021251181922904004D3491CC1
:100B3000002801D14908490008467047C10FC9077C
:100B400000D04042012292071143D3E701218907D7
:100B5000D0E710B500F07CFB006810BD10B504466E
:100B600000F076FB046010BD70B50446856900682E
:100B7000C10601D5302600E02026C00707D070BD91
:100B800062683046A1689047206A401C20626D1E52
:100B9000F6D570BD70B5044685690078C00707D1E9
:100BA00070BD6268A16820209047206A401C2062C6
:100BB0006D1EF6D570BD09684A0501D540B2704773
:100BC000C905FCD500B2704709684A0501D5C0B215
:100BD0007047C905FCD580B2704770B50C46054614
:100BE000012A05D02878800600D5EA69002302E0B2
:100BF000012305E05B1C934202D2E05C0028F9D19E
:100C0000A869E618C01AA861286AC0182862284690
:100C1000FFF7AAFF04E06A682078A968641C90477F
:100C2000B442F8D32846FFF7B5FF70BDF7B50025ED
:100C300075291068009914A611D0FFF7BCFF002891
:100C400002DA404211A608E0009909688A0701D536
:100C50000FA602E0490704D50EA6012501E0FFF723
:100C6000B3FF009F0024243704E000F050FF303130
:100C70003955641C0028F8D12B463246214600988D
:100C800000F027FBFEBD0000000000002D0000006A
:100C90002B0000002000000011680268006A530564
:100CA00001D5087009E0D30501D5088005E01306D9
:100CB00002D5C21705C100E008600120704700009E
:100CC00001694A1C02610878704700B58FB0029133
:100CD000002105910549019379440391114604903F
:100CE000684600F027F90FB000BD0000E5FFFFFFE8
:100CF0000CC908399A4202D2531C0B60107070471D
:100D0000F7B50446154686B02B487844002703C83B
:100D10003E460090019111E007986A467100415AE1
:100D200002A800F0D3FE411C07D02178890603D524
:100D3000E269391891420ED83F18761C2078800657
:100D400002D5E069B84206DDAE42E5DB07987100E6
:100D5000405A0028E0D1A069C01BA0612046FFF7DF
:100D600003FF154878445A3803C8009000200191C9
:100D700016E041006A460798415A02A800F0A6FE14
:100D80000590401C0AD0002505E0626802A8A16811
:100D9000405D90476D1C05988542F6D30498401C31
:100DA000B0420490E5DB206AC01920622046FFF7BC
:100DB000F1FE09B0F0BD0000E66F0000F7B5D21DEE
:100DC0000025D20815A6D200F52905CA11D0002A9F
:100DD00005DA00214042914111A60A4608E0009937
:100DE00009688B0701D50FA602E0490701D50EA6B9
:100DF00001251146009F0024243704E000F02CFA5E
:100E000030323A55641C02460A43F7D12B4632462B
:100E10002146009800F05DFAFEBD000000000000D1
:100E20002D0000002B0000002000000070B50446DB
:100E30000021243408E05507D2086D0F3035655481
:100E40005D072A43DB08491C15461D43F3D104689E
:100E5000002310A2250708D520252C400C4304D0E0
:100E6000C46901230CA2641EC46100F032FA70BD93
:100E700010B5044621461068FFF7A6FE002302467F
:100E80002046FFF7D3FF10BDD21DD108C9000CC901
:100E9000CCE700000000000030000000F8B50F466D
:100EA0000188090502D5224C7C4402E0204C7C4498
:100EB0000E3405460021243508E016071209360FC6
:100EC000A65D6E541E0732431B09491C16461E437D
:100ED000F3D1224604780023240705D5702F06D0CD
:100EE000002901D00223113200F0F3F9F8BD0123EB
:100EF0001032F9E770B504460D4621461068FFF739
:100F000063FE0023024629462046FFF7C7FF70BD57
:100F1000D21DD308DB000CCBC0E730B4036820241B
:100F20001268234303600823C36130BC0023B5E784
:100F3000506E0000F3B50446002081B020622046C8
:100F4000E1688847002872D0252802D06268A1682D
:100F5000ABE0594F00267F442046E16888472028AF
:100F6000054608DB312D06D2781920380078002894
:100F700001D00643F0E7B00701D5042086430020E6
:100F8000E0610746A0612A2D0AD0284606F050F9F4
:100F9000002827D0B8000019303D0090856119E085
:100FA0000298BA00121902C8916102902046E168C5
:100FB0008847012F054617D1E06900281FDA202055
:100FC00086431CE000980A21806948430099401933
:100FD000303888612046E1688847054606F028F9E0
:100FE0000028EFD1012F0AD02E2D08D12046E1682C
:100FF00088470546202006437F1C022FC3DBA069DB
:10100000002803DA4042A06101200643F00701D026
:10101000102086436C2D0BD0682D09D04C2D3CD070
:101020006A2D38D0742D38D07A2D36D016E040E0B5
:10103000E1682F4620468847B842054609D16C2F03
:1010400029D001208002E1680643204688470546F2
:1010500004E06C2F1DD0FF2001300643002D28D066
:1010600028464138192803D80120C00206432035FC
:10107000204626602946029A1646FFF773F8002894
:1010800010D001280BD0F61DF008C00008300290E7
:1010900055E74020E1E78020D5E70020D3E7361D63
:1010A00002964CE762682846A1689047206A401C77
:1010B00044E7206AFEBD0000CA6D000001E004C0E4
:1010C000091F0429FBD28B0701D50280801CC907A8
:1010D00000D00270704700290BD0C30702D0027005
:1010E000401C491E022904D3830702D50280801CBC
:1010F000891EE3E70022EEE70022DFE7C10D10B50D
:101100000906090E2ED0FF2931D07E292DD319D002
:10111000962916D2024675398A4005D00024024627
:101120008A4003D3012302E00124F8E700230222CE
:10113000CA41511E8843002B03D08018002C00D0D8
:10114000904310BD0121420201D1012200E00022A2
:10115000C00FC0070029F4D0002AF2D17F21C905B1
:10116000084310BDC00FC00710BD0021EFE74102CA
:10117000FAD0014810BD00000000C07F10B5FF226A
:10118000C30D134009D05A4007D0914205DA5C42A2
:10119000A14202DDC905081810BDC40FE407002BE9
:1011A00006D0002A06D0002902DBFF20C005044338
:1011B000204610BD4102FCD0004810BD0000C07F99
:1011C00030B5C30D1906214A090E31D0FF292FD0A1
:1011D00000283ADB01025002014301207D33C34065
:1011E00000D24908012080071724091A240649085B
:1011F00082102343FF252D064C00211A04D4891A9E
:1012000002D45400201800E0214652085B19F3D59F
:101210001A220446944007D382068A4203D18021D1
:101220008030884300E08030C009D905081830BDFF
:10123000FF2904D04100FAD0C00FC00730BD4102E1
:1012400001D0104630BD0028FCDAFAE70000C07F6C
:1012500000487047480020200B4670B502468907B9
:101260008008084319469D08141AA9412509080752
:10127000054308092C194841250A01060D43010AB6
:101280002C194141200C0D0428430D0C00194D412F
:10129000002140194D41C00869070843E908840F3F
:1012A0008D002543840024184D4124196D41121BE3
:1012B000AB4107E00925ED432C115219634100248D
:1012C000401C61411C460A250026551BB441F1D241
:1012D00070BDFFB504460D4681B0243000902168F2
:1012E000880604D51022E0699143216000E00120C6
:1012F000A84201DD471B00E000270498A1697A1984
:101300001018081AA0612078C00602D42046FFF702
:101310002BFC002608E003986268A168805D904776
:10132000206A401C761C206204988642F3DB2078F9
:10133000C0060AD52046FFF717FC06E06268A168E0
:1013400030209047206A401C206238467F1E0028CB
:10135000F4DC07E000986268A168405D9047206A6D
:10136000401C206228466D1E0028F3DC2046FFF753
:1013700011FC2078000602D5022005B0F0BD012046
:10138000FBE70000FFB50C461E468FB003CA08906D
:1013900009914F007D0D00D16D1E002108460020EF
:1013A000C0460321099A89050840002A03DA820011
:1013B000801840080840800D01280A9002DD0020B6
:1013C000C0430A90089807430DD0F048F049281808
:1013D00048430714189800281DD07542291E1DDDAA
:1013E0000A9842421BE01898012802D000203021C0
:1013F00004E00020F24305E02154401CB042FBDB36
:1014000030460022189B002121540F998B600A60FE
:10141000486013B0F0BDBD1B6D1CDFE70A9A0029C0
:1014200000DA69420BA800F02DFC0BAB07CB03AB35
:1014300007C30899099800F091FC6B4607C3014661
:10144000D4480918002D00910BDDD24903980A9A5F
:1014500049424018002303A90390684600F0EEFEBD
:1014600008E003990A9A0023081803A90390684624
:1014700000F08EFE6B4607C30004000C03D0002072
:10148000C043410800E01046189A002A03D0002209
:10149000009215461EE0751E05D4FFF7DDFE3032C2
:1014A00062556D1EF9D501220843079602D000222D
:1014B0007F1C04E02078302801D100227F1E002A02
:1014C000069787D01EE0112D07DAFFF7C5FE3032F0
:1014D00062556D1C02460A43F5D1084303D00098BB
:1014E000002819D00EE00021681E05E0235C625C34
:1014F00063542254401E491C8142F7DBA81B401E46
:1015000007950690079A18990020A0540F98079BFA
:10151000069A81600CC07CE711260020189059E7DC
:10152000D21DF0B50D460446D10893B0C90003C9D9
:101530000C900D9105F052FD02460D98C00F01D0A0
:101540002D2007E02068810701D52B2002E040070D
:10155000C00F4001032A0F9001D0072A05DB034684
:101560002946204600F04AFB0EE12078800601D58E
:10157000E76900E006272846652D04D0662814D0C8
:10158000672D69D12DE00020112F009001DB112380
:1015900000E07B1C0CAA03A910A8FFF7F3FE119929
:1015A000002610987D1C0E9142E001203B460CAABB
:1015B000C0070B900120009003A910A8FFF7E2FEDE
:1015C000119D12981099002600280E9501D1781CC3
:1015D0000D18781B02D446427D1C761EE81B009035
:1015E0003AE0012F00DA01270020112F009001DDE1
:1015F000112300E03B460CAA03A910A8FFF7C2FE86
:1016000011993D46109800260E91217809070BD4B8
:101610000E99A94200DA0D4603A9012D04DD4A19ED
:10162000203AD27F302A06D0B84201DA011D04DA0E
:10163000012100910FE06D1EEFE7002802DC861902
:101640002D1A03E0411CA94200DD0D46801B401C01
:1016500000900120C0070B902078000705D4009867
:10166000A84202DB0020C043009069460020C872F7
:101670000B98012102AF0337C907884225D0022009
:1016800010902B2011900B9800280BDA40420B9001
:101690002D20119006E00B9800F039FA30317F1EB2
:1016A0000B9039701099481E00291090F3DC0B98AC
:1016B0000028F0D111987F1E38702088000501D5D0
:1016C000452000E065207F1E387001A8C01BC01DAA
:1016D0000B900F98002800D0012041190098C017E6
:1016E00009180B980818A169081A401EA0612078F3
:1016F000C00602D42046FFF737FA0F98002805D01D
:101700006268A1689047206A401C20622078C00669
:1017100025D52046FFF728FA21E0002E07DB0E989A
:10172000B04204DD03A86268805DA16802E06268DF
:10173000A16830209047206A761C401C20620098E7
:10174000401E002800900AD100F054FAC068626878
:101750000168405CA1689047206A401C20622846CE
:101760006D1E0028D9DC07E062683878A1687F1C0C
:101770009047206A401C20620B99481E00290B905C
:10178000F2DC2046FFF706FA032042E601FCFFFFE9
:10179000104D0000E1DFFFFFD21DF0B504460D46FD
:1017A000D0088DB0C000466807683146384605F05D
:1017B00015FC0246F00F01D02D2307E020688107B9
:1017C00001D52B2302E04007C00F43016846002BE0
:1017D000037001D0012000E00020032A0A9001D00C
:1017E000072A04DB2946204600F008FA2DE120787C
:1017F000800601D40D2500E0E5697000400D0D2D37
:1018000001904BDA300D00210B9008460020C046B5
:10181000032189050840002E05DA82008018C20FD6
:101820001018401008408015012801DD0020C04339
:10183000A9000023182906D39C460A460123183A1A
:101840001B07D34003E001221205CA4094460C3125
:10185000202902D33A46203900E032468A40002847
:1018600002DD002A06D119E0002817D10121C9079D
:101870008A4213D3194663467F185E41002806D179
:101880000120C007824202D1084687439E430B983D
:10189000310D814202D00198401C01902088000542
:1018A00002D57149794402E06F49794419396B4690
:1018B0000A9830221A540A980A7C401C1A54401C78
:1018C0000A900198002801DC302000E031201872D5
:1018D000019A0120002A02D0644BD21804E0720061
:1018E0003A4302D0614A521C0192002D02DC227858
:1018F000120703D56A462E20507202200022864627
:1019000094460CE032033601120F6D1E8B5C02AA66
:1019100013546246521C401C9446052A01DA002DDD
:10192000F0DC002202AE08E03B0F3F01CB5C521C12
:101930006D1E3354401C082A01DA002DF4DC2368A4
:101940009A0601D511E0401E704504DD3218203A98
:10195000D27F302AF7D0002807DD3218203AD27F14
:101960002E2A02D11A0700D4401E002D03DD3E228C
:101970003254401C6D1E497C31540199401C002991
:1019800006DA2D21471C315401984042019003E0B2
:101990002B21471C315401987D21C900884206DB68
:1019A000FEF754FD3030F0557F1C019101E06428B2
:1019B00008DB01986421FEF749FD3030F0557F1CAB
:1019C000019101E00A2806DB01980A21FEF73EFD9D
:1019D0003030F0557F1C01980A21FEF737FD303179
:1019E000F1550A98A1697F1C7A191018081AA0618C
:1019F0002078C00602D42046FFF7B6F8216A6E466A
:101A00000A980818206204E062683078A168761CA1
:101A100090470A98401E0A90401CF5D12078C006D5
:101A200002D52046FFF7A0F802AE09E03078761C18
:101A30003E280DD06268A1689047206A401C206251
:101A40007F1EF3D22046FFF7A5F80DB00320F0BDAE
:101A5000206A4019206203E06268A1683020904744
:101A60006D1EEDD3F8E70000C364000001FCFFFF2A
:101A700010B54369002B02D0C046C04601E0FFF715
:101A8000ACF8012010BD1278014624310A70002202
:101A90004A700122ECE711680022D243E8E710B552
:101AA0004369002B02D0C046C04601E0FFF728F989
:101AB000012010BD12880146243182840022C28494
:101AC0000122ECE711680022D243E8E7F8B5164698
:101AD0000C46054600F086F80368FF200230C05C23
:101AE000012807D0FF2C0FD8185D00280CD001204A
:101AF0002C70F8BDFF333246214608331868C718EA
:101B000028460023B847F8BD0020C043F8BD014671
:101B10008008081A02091018020A1018020C10187E
:101B2000C008820012185200891A01E0401C0A39CC
:101B30000A29FBD27047000010B5FF231B064400A2
:101B40009C421DD84C009C421AD80346124A0B43B3
:101B500007D4401A02D3EFF3008010BDEFF30080EA
:101B600010BD081A03D3EFF30080904305E0EFF3B4
:101B7000008001219043C907084380F3008810BD0D
:101B80000D231B041A4204D01146002000F0AEFBC6
:101B900010BD00F0C3FB10BD00000090004870476E
:101BA000480020207546FFF7F9FFAE46050069465C
:101BB0005346C008C000854618B020B5FEF788FB24
:101BC00060BCB64600260027C0C5C0C5C0C5C0C59C
:101BD000C0C5C0C5C0C5C0C5403D490849008D4607
:101BE0007047000010B500F005F8001D10BD00BFE3
:101BF000595D00000048704768002020F8B51F4676
:101C0000044601230068DB02032601461840072A28
:101C100005DB002801D017A506E017A504E0002881
:101C200001D016A500E016A5102081432160A0690F
:101C3000C01E002FA06101D0401EA0612046FEF70B
:101C400093FF002F09D038466268A1689047206A48
:101C5000401C2062C01C206206E0206AFAE762682D
:101C60002878A1686D1C9047761EF8D22046FEF7B2
:101C700091FFF8BD4E414E006E616E00494E460028
:101C8000696E6600F7B516468AB0334878446C46EC
:101C900003467C33C06F5A689B680DC42E48784455
:101CA000763003AC0DC80DC43720C00108183721A9
:101CB0001B30FEF7CBFB05460C46803D1B3C02D596
:101CC0006442012000E000200027099010E0E007B6
:101CD0000CD00C2020497843794432464C394118C5
:101CE0006846012300F054FA6B4607C364107F1C5A
:101CF000002CECD1184F7F442E3F16E0E80712D09D
:101D00002001C0190EC80691089307920068F0429E
:101D100001D1981908903246012306A903A800F0C2
:101D200037FA03AB07C36D10641C002DE6D1099888
:101D3000002806D032466946012303A800F07EFA47
:101D400005E001233246694603A800F021FA0A9B08
:101D500007C30DB0F0BD0000F06000000346400076
:101D60000A4610B5400D0BD00121C9070F24A4026B
:101D700000191C0364082143540D2143D20207E0DB
:101D800000210120F2E7D40F490021435200401EF8
:101D90000029F8DADB0FDB07184310BDFFB50D464D
:101DA000144685B04868516805F0FFF8009101902D
:101DB000A868A16805F0F9F802910390A868616825
:101DC00005F0F3F8029A12188242029201D2012021
:101DD00000E00020019A0B18D2180028019202D0CE
:101DE0008A4202D903E08A4201D2012000E00020A9
:101DF0000099081800906868A16805F0D6F8029A62
:101E000012188242029201D2012000E00020019AC1
:101E10000B18D2180028019202D08A4202D903E09E
:101E20008A4201D2012000E00020009908180090A9
:101E30002868216840004900400849084018FA49CC
:101E4000471814E001994000C90F08430090019819
:101E500002994000C90F084301900298039940007D
:101E6000C90F08430290039840007F1E039000981A
:101E70000028E7DA0898002801D0EC4E00E00026A0
:101E8000B74201DA012000E00020002804902AD0A7
:101E9000F71BF806C00E15D0029B2021091A039AE1
:101EA0008B401A430392029A019BC2408B401A4313
:101EB0000292019A009BC2408B4000991A43019202
:101EC000C14000917B110DD06F460320C11A03D58C
:101ED00000218200B95003E08A008100BA587A508C
:101EE000401EF3D5374603980299002800D0012000
:101EF000014308980291002808460CD0002800D021
:101F000001200199019A490508430121D20AC90219
:101F1000D202019200E001210E9B0122D207012B87
:101F200002D0002B03D013E0002807D120E090421C
:101F300004D890420CD1019B0B4209D0019B591847
:101F4000019105D10099491C009101D17F1C00929B
:101F500000280DD0102108460020C0460498002813
:101F600006D00F98002803D0082108460020C0465C
:101F700028682168019B009A4840C10F0598C9074D
:101F800039430EC009B0F0BDFFB587B0099A089873
:101F900008995368926840688968964600220393BE
:101FA00017469446089A12685300099A5B0812680B
:101FB000520052089A1A9E4BD4180A9A002A01D04D
:101FC000352200E0402206920022012315460492A9
:101FD000DB07059324E0002D05D175460346039EDB
:101FE0004D1BB34109D375466646039B491B049DAF
:101FF0009841059B7519AC465F4163463B4308D049
:10200000059B049EDD0776082E435B080496059326
:1020100001E0521E641EC50FED0749184041521CD5
:10202000069B9A42D7DB002D04D17546039A6B1AA2
:10203000824101D203200CE0039A0B466B404240E0
:10204000134303D0014303D0012002E0022000E04B
:102050000020614601910021009702910A99002910
:1020600005D0614640020143704B019102E08007B8
:10207000002302909C4201DA012000E000200700CA
:102080003AD01A1BD006C00E15D0029D2021019C0B
:10209000091AC5408C402543029C8C4000D0012485
:1020A0002543019C0295009DC4408D4000992C431E
:1020B0000194C140009154111DD06D4602210022AF
:1020C00002290CD10320001B07E0002804DB860056
:1020D000AE59002E00D00122401C0328F5DB081B5E
:1020E00002D588002A5004E08000285810438A0056
:1020F000A850491EE3D51C460A98002802980CD027
:10210000002800D001200199019A490508430121C6
:10211000D20AC902D202019200E00121109B0122E1
:10212000D207012B02D0002B03D013E0002807D1E7
:102130001FE0904204D890420CD1019B0B4209D081
:10214000019B5918019105D10099491C009101D1B9
:10215000641C009200280CD0102108460020C046C4
:10216000002F06D01198002803D00821084600202F
:10217000C04608980999019A009B00680968484080
:10218000C10F0798C907214382600AC00BB0F0BD98
:1021900000B585B0019300920A460146002302A8CB
:1021A000FFF7FCFD02A807C805B000BDFFB50A4651
:1021B0001F4685B00799019301230091014602A8AB
:1021C000FFF7ECFD02990398049ECA0F4900D2075D
:1021D00000920F22490892028C1A0021002800DB8D
:1021E0000C46450013486D08844214D3079A002A10
:1021F00004DA441E0026104DF64302E004460D4664
:102200000E46102108460020C046002F03D00421AE
:1022100008460020C0462005E90A08430099084303
:102220006905F20A1143ADE602C0FFFF013C000060
:10223000FF3F0000FF070000FFFFFF7F00B585B0F4
:10224000019300920A460146002302A8FFF79CFE74
:1022500002A807C8A8E7FFB50A461F4685B0079938
:10226000019301230091014602A8FFF78DFE029918
:102270000398049ECA0F4900D20700920F22490812
:1022800092028C1A0021002800DB0C464500114800
:102290006D08844214D3079A002A04DA441E0026EB
:1022A0000D4DF64302E004460D460E461021084649
:1022B0000020C046002F03D0042108460020C0465D
:1022C0002005E90A0843009908436905F20A114309
:1022D00058E60000FF070000FFFFFF7F10B504462F
:1022E000C046C0462046FDF7C9FF10BDC80212D542
:1022F0004803400F002804D0C803C0430121884090
:102300007047EFF30080000100090321090708432B
:1023100080F30088704700207047000010B5024825
:1023200000F05CF810BD00000000C07F82078B0742
:102330009A423FD170B5920F0AD0032402780B78ED
:10234000401C491C002A33D09A4231D12042F5D199
:10235000214EF40104C808C9951B9543254018D1A6
:102360009A420FD104C808C9951B9543254010D146
:102370009A4207D104C808C9951B9543254008D146
:102380009A42E7D012BA1BBA01209A4200D24042C8
:1023900070BD12BA1BBA2DBA18241000E040190003
:1023A000E140401A05D12E00E64002D1083CF4D1AC
:1023B000D01A70BD02780B78401C491C002A09D045
:1023C0009A4207D102780B78401C491C002A01D0A0
:1023D0009A42EFD0D01A70470101010110B50C46A6
:1023E0001107090F092904D00A290AD008290CD19C
:1023F00004E011460820FFF779FF06E0510606D5F4
:1024000001E0510601D50120C007214610BDD106CB
:1024100007D501010909CC084907000E000604434D
:1024200009E0410F20024907000A0143200E00067F
:102430001D22D14101430846E7E700000149182069
:10244000ABBEFEE7260002007047811E091F00BFD9
:10245000FCD2704710B5002A0FD091235B01C3183E
:102460000020DC692405240F05D00C5C1C60401C96
:102470008242F6D1104680B210BD002080B210BD5D
:10248000084A835880210B43835080180F22120280
:10249000436813400122D2029342F7D102688A4373
:1024A000026070473812000070B50A780C231A4099
:1024B0000124240305196E689E43B2186A604978A6
:1024C00007221140035993435918015170BD000070
:1024D000B0B51122120283580C4C1C400B894D8858
:1024E0001D438B792B430A4D1D402B1983508B883C
:1024F000CC791C43097821435D239B001940801847
:1025000042689A4389184160B0BDC04680CCFFFF45
:102510007F33000010B50122120383180C785C6031
:102520004978815010BD0000F0B57A4A82183B4BC3
:10253000C31808794E793A4D784C002E23D02028C4
:1025400004D00526F601002803D003E0354E00280C
:1025500000D18826576F2F4037435767976F2F401A
:1025600037439767566B26405663966B26409663B3
:102570000026566596658F26F6435F6837405F6094
:102580009F6837409F608E79096820280BD000280B
:1025900019D1491E5160D76E2F4088210F43D7664D
:1025A0001746703719E0491E5160D16E29401D4F02
:1025B0003943D166116F2940394311670121490719
:1025C000194D174609E049085160D76E2F40052183
:1025D000C9010F43D766174670373C682C400C433F
:1025E0003C60D16A4D4C2140D162116B2140116396
:1025F0000021D16411658F21C943D46F0C40D46789
:102600001C680C401C600643BD2030401168074B1D
:102610000B40C018801C1060F0BDC046841800003C
:1026200024493E0001040000FFFFFFCF4000FFCF20
:10263000B0B54A68364BC250364A80180A78222A0A
:1026400058D8930001A4E3589F46C046EB260000EB
:10265000F5260000EB260000F5260000F526000018
:10266000F5260000F5260000F5260000F5260000FE
:10267000F5260000F5260000F5260000F5260000EE
:10268000F5260000F5260000F5260000D9260000FA
:10269000F5260000D9260000F5260000F5260000EA
:1026A000F5260000F5260000F5260000F5260000BE
:1026B000F5260000F5260000F5260000F5260000AE
:1026C000F5260000F5260000F5260000D9260000BA
:1026D000F5260000D926000003231B0704689C434D
:1026E00001235B07E318036004E003231B0704686E
:1026F0009C4304600B69C360CB68074C1C40C36AF1
:10270000064D1D402B19C362097A11430160B0BD0B
:102710000818000004180000777702008888FDFF81
:1027200010B507239B04194092008018024A845870
:102730009C436118815010BD3018000010B5029CF8
:10274000A400001911431943014A815010BDC0462D
:102750005018000092008018014A81507047C0460E
:102760001018000010B50122120383180C789C6029
:102770004B7883508978014A815010BD0C110000BC
:10278000B0B51122120283580124A34383500B8851
:102790008C781C438B882343094C1C408358094D7B
:1027A0001D40631983508B79CC791C43097A2143EE
:1027B0007E231940801842689A4351184160B0BD89
:1027C00018670000E798FDFF10B501221203831877
:1027D0000C789C604978815010BD0000034A801835
:1027E00002681206FCD481617047C04608110000DF
:1027F0008EB000F0C1FF002805D038A001F086F9A6
:10280000002003F04FF902F0DBF9384800F0CEF871
:10281000374C2046374D2946374A01F0ADF820465F
:102820002646294602F0C0F89420344C21582868E6
:1028300005F0C8F9069098202158686805F0C2F99B
:1028400005909C202158A86805F0BCF9054637463C
:102850003068E16F05F0B6F90646802021587868A7
:1028600005F0B0F90746842021582148806805F01A
:10287000A9F9034606980090059801900295204812
:1028800003901A4C204631463A4600F019FD0AA83A
:10289000214600F083F80AAB0FCB07AC029408ACDA
:1028A000019409AC009401F0F5F90898FEF722F8BC
:1028B00004460D460798FEF71DF806460F46099890
:1028C000FEF718F8024600A8F0C00EA00B4601F073
:1028D00041F94B20800002F019F899E7494D552045
:1028E000696E6974206661696C656400C417202094
:1028F000D4192020B8172020C41D20203C1C2020E3
:102900009A99993E726F6C6C3D252E3266207069E3
:102910007463683D252E3266207961773D252E321D
:1029200066000000B0B582B014480221016014486E
:102930000160012003F0E2FA1249086000281AD071
:102940001148009011A0142101220024234604F014
:1029500091F9054610480560002D0DD003F0D8FF11
:102960000246009401212846234604F0F5F9012887
:1029700003D102B0B0BDFEE7FEE7FEE780E200E073
:1029800000E100E0102F20208942000053706565AF
:102990006454696D65720000402F202010B50C460C
:1029A00010341CCCC9691CC0016010BD10B50446B0
:1029B00010A100F0A7F85821002060522C2101221C
:1029C00062547F21C90521616061A061E0612062DC
:1029D0006062A062214658310872E0656065714905
:1029E0002163A063E06320646064A064E064383421
:1029F000207610BD0000003F0000B4420000B44249
:102A000000000000F0B585B0049104464069A66955
:102A1000314605F073F805462069E769394605F047
:102A20006DF8294604F0A6FF03903046314605F0C4
:102A300065F801463F200606304605F0C3F8054616
:102A40003846394605F05AF80146284605F0BAF8E6
:102A50000146039804F080FC05462949049805F0D6
:102A60004DF80146284604F085FF314605F046F84A
:102A7000054604F0BFFD0646284604F077FE0546ED
:102A800021690491304605F039F80746E169039160
:102A90002846019505F032F8394604F06BFF2061B5
:102AA000616902913046374605F028F80090A66922
:102AB0002846314605F022F8009904F05BFF60617A
:102AC0003846314605F01AF80546019E304602990F
:102AD00005F014F80146284605F074F8A061384660
:102AE000039905F00BF805463046049905F006F801
:102AF0000146284605F066F8E06105B0F0BDC04625
:102B000035FA8EBCF0B581B00E46044608680090D8
:102B100020604D680021284604F05EFB1F4F00280E
:102B2000384610D1F068002838460CD01C49284699
:102B300004F0E4FF04F01AFE3F21090604F0DEFF72
:102B4000014604F0DBFF6060B5680021284604F010
:102B500043FB002810D1F06800280DD0104928460A
:102B600004F0CCFF04F002FE3F21090604F0C6FF8A
:102B7000014604F0C3FF0746A760F068E0602C2020
:102B8000205C0028009900D12163064805F01AF85E
:102B90000549FDF7D9FE606301B0F0BDFFFF7F7FFF
:102BA00035FA8E3C0000204100004040F0B59BB05B
:102BB00008AC0EC4064622980F90B062219812907D
:102BC000706220980D9030622C20305C31462C31A0
:102BD0000E9137465037269C012813D1706B214641
:102BE00004F08CFF0146306B04F0ECFF3063356875
:102BF000294604F0FCFA002804D100200E99087040
:102C0000356338720B94239811900120149038701A
:102C100035691597B7692846394604F06FFF139058
:102C200074691696F6692046314604F067FF1399D9
:102C300004F0C8FF10902046294604F05FFF0446C8
:102C40003846159F314604F059FF214604F092FEA4
:102C500013902846294604F051FFBF21090606912A
:102C600004F088FE04463046314604F047FF214612
:102C700004F080FE0C90FC4D0D98400000240028CC
:102C800009D11298284006D10F98284021462246A3
:102C9000234600D1D6E00794169CE068616D81421E
:102CA00036D922461432204610300021D1601161FD
:102CB00051610E9B149D1D706165EC4B236303688D
:102CC0000593061D70CE7F27FF05169B1F6191603F
:102CD000516011601A96169E19951894059A1792CC
:102CE000159F3981F1653974324638321176B163F6
:102CF000F16331647164B164F1641A9A199B189C90
:102D0000179D056044608360C260716514983872D5
:102D10000D9F3846394604F0F1FE044612980146EC
:102D200004F0ECFE05460F98014604F0E7FE064667
:102D30002046294604F01EFE0146304604F01AFEE5
:102D40004410CB4904F0DAFECA490D1B294604F0B1
:102D5000D5FE294604F0D2FEC74904F00BFE2946F1
:102D600004F0CCFE0646394604F0C8FE074630465D
:102D7000129904F0C3FE1290109D294604F0BEFE85
:102D800004463846139904F0B9FE214604F01AFFB0
:102D90001699086430460F9904F0B0FE064638468E
:102DA0000C9F394604F0AAFE04463046294604F03A
:102DB000A5FE214604F006FF1699C8633046169E0C
:102DC000139904F09BFE04461298394604F096FECF
:102DD000214604F0F7FEB0630E980078002823D156
:102DE000B06B014604F08AFE0446F06B014604F025
:102DF00085FE0546306C014604F080FE06462046FE
:102E0000294604F0B7FD01463046169E04F0B2FD97
:102E1000716804F0F7F9002806D0706D401C00219D
:102E20000A460B46159F0AE00020159F3870706D0A
:102E300001460A3900D30846B36BF26B316C079C2C
:102E40007065894D0D930F921291259E249A1498C6
:102E500078721198284207D11046284004D1354095
:102E60002746214600D115E10020159C07902074CB
:102E70001699C868C96D814212D9009201961098BE
:102E8000139917460C9A119B00F0A8FA0146169D5B
:102E90002846FFF7B7FD3A46149820740020E865ED
:102EA00004920C9F3846114604F028FE04461398FD
:102EB000314604F023FE214604F084FE05461098B6
:102EC000314604F01BFE04463846119F394604F093
:102ED00015FE214604F076FE06460595284629464D
:102EE00004F00CFE04460C963046314604F006FE13
:102EF0000146204604F03EFD06461398394604F08C
:102F0000FDFD04461098049904F0F8FD214604F0F4
:102F100059FE1190014604F0F1FD314604F02AFDFE
:102F20004410E44904F0EAFDE1490D1B294604F090
:102F3000E5FD294604F0E2FDDF4904F01BFD2946CA
:102F400004F0DCFD044604900598214604F0D6FD0B
:102F500013900C98214604F0D1FD05461090169E62
:102F60003769F1690C91384604F0C8FD0446706970
:102F70000390B669314604F0C1FD214604F0FAFC25
:102F800001460590284604F0B9FD05463846394605
:102F900004F0B4FD069904F0EDFC044630463146D9
:102FA00004F0ACFD214604F0E5FC014606901398C0
:102FB00004F0A4FD294604F005FE1699C864119892
:102FC000049904F09BFD05463846039904F096FDEC
:102FD000044630460C9904F091FD214604F0F2FDC0
:102FE00006461398314604F089FD044628460599A3
:102FF00004F084FD214604F0E5FD169FB8642846E0
:10300000069904F07BFD04461098314604F076FDE5
:10301000214604F0D7FD3E4678640E9800780028DB
:103020002CD1706C014604F069FD0446B06C014679
:1030300004F064FD0546F06C014604F05FFD0646B1
:103040002046294604F096FC01463046169E04F0C0
:1030500091FCB16804F0D6F800280FD0F06D401C48
:10306000079C2746214614E0FFFFFF7F0000204118
:1030700012D336BF12141F5FFF51D83F002015999D
:103080004872F06D01460A3900D30846746CB76C7B
:10309000F16CF0651091894D0898294604F02EFDD9
:1030A00015900998294604F029FD06460D982146F9
:1030B00004F060FC04460F98394604F05BFC0546BA
:1030C0001698076B0F972046394604F017FD044603
:1030D0002846394604F012FD05461598214604F0AD
:1030E00049FC04463046294604F044FC05460B9E44
:1030F0003046214604F002FD074615903046294629
:1031000004F0FCFC01461190169DA869139004F090
:10311000F5FC04461498C007696914914840394683
:1031200004F0ECFC214604F04DFD05460A98634985
:1031300004F0E4FC04461298109904F01BFC0146CC
:103140000F9804F0DBFC0146204604F013FC014616
:10315000304604F0D3FC0446169EF76938460D97B6
:103160002146129404F0CAFC0146284604F02AFDC8
:1031700010901398214604F0C1FC0446366930468D
:103180000B96159904F0BAFC214604F0F3FB0446B3
:103190003846119D294604F0B1FC0146204604F052
:1031A00011FD04463046109904F0E4FB0746149ED6
:1031B0003046214604F0DEFB1090014604F09EFCF0
:1031C00004460F973846394604F098FC214604F02F
:1031D000D1FB0C903046129904F090FC04460B9EF3
:1031E0003046294604F08AFC214604F0EBFC0446F4
:1031F0000D9D2846159904F081FC214604F0BAFB88
:103200000146139F384604F0B5FB0E90014604F0CA
:1032100075FC0C9904F0AEFB0C901498119904F015
:103220006DFC04463046129904F068FC214604F017
:10323000A1FB04463846159904F060FC014620467F
:1032400004F0C0FC0146284604F094FB0646014603
:1032500004F054FC0C9904F08DFB4408154904F06B
:103260004DFCC2490F1B394604F048FC394604F0B6
:1032700045FCBF4904F07EFB394604F03FFC07469D
:103280000F98394604F03AFC169C20611098394694
:1032900004F034FC60610E98394604F02FFCA06104
:1032A0003046394604F02AFCE0611BB0F0BDC04650
:1032B00012141F5F12D336BFFF51D83F35FA0E3CB0
:1032C000F0B58DB004461598069000200590049046
:1032D0000390149802901398019012980090204641
:1032E000FFF764FC2C20205C012804D120465830D4
:1032F0000078002801D00DB0F0BD6069A76939469B
:1033000004F0FCFB06462069E569294604F0F6FB5B
:10331000314604F02FFB0C903846394604F0EEFBA2
:1033200001463F200706384604F04CFC0646284676
:10333000294604F0E3FB0146304604F043FC014615
:103340000C9804F009F8394604F0D8FB054604F05F
:1033500051F90646284604F009FA054621690C9100
:10336000304604F0CBFB0746E1690B9128460995EE
:1033700004F0C4FB394604F0FDFA206161690A914A
:103380003046374604F0BAFB0890A6692846314615
:1033900004F0B4FB089904F0EDFA60613846314658
:1033A00004F0ACFB0546099E30460A9904F0A6FBE2
:1033B0000146284604F006FCA06138460B9904F04B
:1033C0009DFB054630460C9904F098FB01462846C3
:1033D00004F0F8FBE0610DB0F0BD0000F0B587B07F
:1033E000019317460D46069104900C9902911046E0
:1033F000039204F083FB04460D9E2846314604F0F8
:103400007DFB214604F0DEFB0590049D28463146F5
:1034100004F074FB04463846019F394604F06EFB05
:10342000214604F0CFFB04460598014604F066FBF4
:1034300006462046214604F061FB0146304604F072
:1034400099FA06460698394604F058FB074628467E
:10345000029904F053FB394604F0B4FB07460146D9
:1034600004F04CFB314604F085FA45103E4904F067
:1034700045FB3E494D1B294604F040FB294604F01C
:103480003DFB01463A4804F09DFB294604F036FB1B
:1034900006462046314604F031FB05460290384688
:1034A000314604F02BFB0446069904F027FB07463F
:1034B0002846039D294604F021FB394604F082FB8F
:1034C00007460598314604F019FB0590294604F09B
:1034D00015FB06462046049D294604F00FFB3146A5
:1034E00004F070FB04463846394604F007FB0646F4
:1034F0002046214604F002FB0146304604F03AFA29
:1035000004460298294604F0F9FA0546059E30461D
:10351000069904F0F3FA294604F054FB014604F03E
:10352000EDFA214604F026FA44100F4904F0E6FAB9
:103530000E490C1B214604F0E1FA214604F0DEFAA4
:1035400001460B4804F03EFB214604F0D7FA014641
:10355000384604F0D3FA0146304603F0FDFE054933
:1035600004F0CCFA07B0F0BD12D3363F12141F5F3F
:10357000FF51D83FE02E6542F0B583B0344D284668
:1035800018380068800760D5324E103E3068C0069B
:1035900031492AD5086840210140304F3970304800
:1035A00000680024019401AA214602F0E3FF0128EB
:1035B0000ED13878002801D0012000E0E0432949ED
:1035C0000A68801808602648006801A902F0D3FE46
:1035D0000198002803D001200007234908601D4AF4
:1035E00010681021014311601B493068800628D5FE
:1035F000086880210140194F7970194E3068002405
:10360000029402AA214602F0B5FF01280DD1787874
:10361000002801D0E04300E0012014490A68801826
:103620000860306802A902F0A6FE0298002803D0C4
:10363000012000070C490860064A10682021014358
:103640001160286802210143296003B0F0BDC04623
:103650005811404048300A4080330A40A8002020DA
:10366000102F2020101A202004ED00E0381C20200C
:1036700080B5024800F0F2FD80BDC0461C0020204D
:10368000F0B583B01C461546019002AA117035486A
:1036900011461A46FEF7DEFEC8200126324F02E030
:1036A000401E012A08D082B251425141BA689206A6
:1036B0003246F5D40A46F3E738682C4908400199A8
:1036C0004900019140183860786829490840294923
:1036D00040187860C82002E0401E012A08D082B25B
:1036E00051425141BA6852063246F5D50A46F3E7CF
:1036F000C82002E0401E012A08D082B25142514146
:10370000BA6892063246F5D40A46F3E71548FEF742
:10371000B7FE386815490840019901430120084364
:1037200038607868124908402104014307200843A3
:103730007860002C14D0002004E0F9682954401C63
:10374000A0420DD0C82102E0491E012BF5D08BB25A
:103750005A425A41FB6A1B073346F5D11346F3E739
:1037600003B0F0BD00200F4010320F4000F8FFFF03
:10377000F8FF00F007000100F0B587B068246B2166
:103780008122204601F002FF642001F0BFF875217C
:10379000204601F0EFFE6F4908700124AD282ADCB5
:1037A00012282CD0682800D195E0982800D0BFE0DE
:1037B00068256B2100242846224601F0E7FE1921E6
:1037C0002846224601F0E2FE642001F09FF81A210B
:1037D0000222284601F0DAFE1B210826284632463E
:1037E00001F0D4FE1C212846324601F0CFFE1D21F7
:1037F000032228469AE0AE38022800D398E06824D5
:103800006B2680222046314601F0C0FEC82006907B
:1038100001F07CF80125204631462A4601F0B6FE2B
:103820000A2001F073F8192105910026204632463E
:1038300001F0ACFE1A2104910222204601F0A6FEFE
:103840001B210391082720463A4601F09FFE1C21C8
:10385000029120463A4601F099FE1D210191032272
:10386000204601F093FE6C212046324601F08EFE88
:103870001E212046324601F089FE23212046324691
:1038800001F084FE069801F041F82046059901F008
:1038900071FE314F38702046049901F06BFE78704C
:1038A0002046039901F066FEB8702046029901F0A7
:1038B00061FEF8702046019901F05CFE387127A086
:1038C000344602E0761C052E32D0815DBA5D8A4214
:1038D000F8D02C46F6E768256B268022284631462C
:1038E00001F054FEC82001F011F8002428463146AA
:1038F000224601F04BFE0A2001F008F81921284663
:10390000224601F043FE03222846314601F03EFEE6
:103910001A210222284601F039FE1B2108262846DA
:10392000324601F033FE1C212846324601F02EFEBD
:10393000E4B2012C03D10DA000F0E8F802E009A0E8
:1039400000F008F97D20800000F0E0FF204607B07D
:10395000F0BDC04600002020E01920200002080829
:10396000030000007375636365737300696E6974A7
:10397000206661696C656400F0B585B016460C463A
:10398000054668203B2101AA0E2301F009F858489A
:103990000078AD2829DC12282AD0682857D098282A
:1039A00055D10198C0BAFDF7C9F820600298C0BA95
:1039B0004042FDF7C3F8A06001AF7888C0BA40422A
:1039C000FDF7BCF860600398C0BAFDF7B7F828604F
:1039D0000498C0BA4042FDF7B1F8A8607889C0BA2F
:1039E0004042FDF7ABF8686025E0AE3802282ED2E1
:1039F0000198C0BA4042FDF7A1F8206001AF788875
:103A0000C0BAFDF79BF860600298C0BA4042FDF76B
:103A100095F8A0600398C0BA4042FDF78FF828607F
:103A20007889C0BAFDF78AF868600498C0BA404245
:103A3000FDF784F8A860F888C0BAFDF77FF82D4933
:103A400003F098FF2C49FCF77FFF2C492AE00298ED
:103A5000C0BAFDF773F8A0600198C0BA4042FDF704
:103A60006DF8206001AF7888C0BA4042FDF766F873
:103A700060600498C0BAFDF761F8A8600398C0BA06
:103A80004042FDF75BF828607889C0BA4042FDF7F4
:103A900055F86860F888C0BAFDF750F81849FCF787
:103AA00053FF184903F066FF30606868164E3146D0
:103AB00004F024F86860A868314604F01FF8A86094
:103AC0002868314604F01AF8286039200506606835
:103AD000294604F013F86060A068294604F00EF847
:103AE000A0602068294604F009F8206005B0F0BD08
:103AF000000020200000C8C16666A3430000C84142
:103B00000000AA43B81E124247237A3C83B0B0B5E6
:103B1000C1B0044645914692479345AB00930120BE
:103B2000010201AD28462246FCF7F8FB054806498C
:103B300006A22B4601F088FD41B0B0BC01BC03B029
:103B40000047C04600801040607E00005B45525236
:103B50004F525D0083B0B0B5C1B004464591469266
:103B6000479345AB00930120010201AD2846224650
:103B7000FCF7D4FB05480649064A2B4601F064FDD4
:103B800041B0B0BC01BC03B00047C046008010404B
:103B9000607E0000687E000070B50C4D0024284651
:103BA00021462246FEF7D6FD01262846214632460A
:103BB000FEF7D0FD064D284621462246FEF7CAFDF7
:103BC000284621463246FEF7C5FD70BD00008640FE
:103BD0000000094070B501200404164D2C616420DA
:103BE00000F094FE2C60322000F090FE002412A51C
:103BF000285D00F007F9641C172CF9D10024254634
:103C0000B0202843C0B200F0FDF8204600F0FAF8DA
:103C1000102000F0F7F82646002000F007F9701C8D
:103C200046B2002EF8D5681CE9B207290546E7D34D
:103C300070BDC04690320A40AED580A83FD3004048
:103C4000A1C8DA1281CFD9F1DB40A4A68D14AF0050
:103C5000EFF309800E4B1A6820381060F0C044461C
:103C60004D4656465F46F0C008B572B602F0A6F85B
:103C700062B60CBC116808681030F0C8A046A946AE
:103C8000B246BB4680F309882038F0C81847C046C2
:103C9000581B2020F0B589B0089314460F460546FE
:103CA00007901046194603F029FF06462846394674
:103CB00003F024FF314603F05DFE014603F05AFE97
:103CC00006462046214603F019FF05463846394688
:103CD00003F014FF294603F04DFE014603F04AFEAF
:103CE00001467F20C005069003F06CFF0146304678
:103CF00003F032FB0E990491086008980397394647
:103D000003F0FCFE054607980294214603F0F6FEF8
:103D1000294603F057FF014603F02CFE064601201A
:103D2000C5073046A843069903F077FA1099059124
:103D30000F9F002803D0304603F082FA02E02E40A5
:103D400029483018019738600398029C214603F0F7
:103D5000D5FE05460798089F394603F0CFFE294651
:103D600003F008FE014603F005FE064638463946D4
:103D700003F0C4FE05462046214603F0BFFE294657
:103D800003F0F8FD014603F0F5FD0146069803F047
:103D900019FF0146304603F0DFFA059E3060049FAC
:103DA0003868FCF7A7FD114C114D22462B46FCF755
:103DB0007DFCFCF73DFC3860019F3868FCF79AFDFC
:103DC00022462B46FCF772FCFCF732FC3860306868
:103DD000FCF790FD22462B46FCF768FCFCF728FC1C
:103DE000306009B0F0BDC046DB0FC93FF8C1631AAF
:103DF000DCA54C4080B50B4681000122184600F03E
:103E00009DFC80BDB0B501231905114A11615B0409
:103E10001361104C2568ED06FCD420632068400730
:103E2000FCD4206A13601160B0BDC04610B50123F8
:103E30001905074A11615B041360064B1C68E40610
:103E4000FCD4186318684007FCD4186A116010BDD0
:103E500090320A4010B1464070470000F0B52B493F
:103E60008720C86601239A032948026088220A61D4
:103E7000284A0824146084248C62802414608225DB
:103E80004D6110241460244C661C4E600E605B066D
:103E90004E681E434E600E681E430E604D641F4EFA
:103EA0008E641F4D8327AF610F67761C6E610E46CF
:103EB0000C3E812737600E46083E3760CC620F63A8
:103EC0002F60AF62EF63CC640C654C638C63154963
:103ED000E9651146303903240C601460014630391D
:103EE000114A0A60014640390B60104901601048D0
:103EF0000168104A0A4302600F48016A30221143E8
:103F00000162016811430160F0BDC046108042406B
:103F1000D0320A40D0120A4081000C008200040016
:103F20008480424081000200080013000800130250
:103F300090330A403035000028300A4010B511484F
:103F40001149FEF7B1FA03225102104803680B43EE
:103F5000036001210B0204681C43046000234361D9
:103F60004262826B07239A4382631A02836B9343F4
:103F70008363826A042313438362826A0A438262F0
:103F800010BDC04600200F40147E000000320F40DC
:103F900070B582B01B4C1C492046FEF7E3FB1B4961
:103FA0002046FEF7C1FA1A4801683C4A0A400260FE
:103FB00000250095204629462A462B46FEF7BEFBE3
:103FC000204629462A46FEF7ABFB204629462A46CC
:103FD000FEF7C0FB01260096204629462A462B46BE
:103FE000FEF7ACFB204629463246FEF799FB2046F9
:103FF00029463246FEF7AEFB064886600321016083
:1040000002B070BD00008640167E00001C7E0000DD
:10401000041886400011864070B582B01B4C1C49C4
:104020002046FEF79FFB1B492046FEF77DFA1A4803
:1040300001681A4A0A400260002500952046294678
:104040002A462B46FEF77AFB204629462A46FEF7EB
:1040500067FB204629462A46FEF77CFB0126009690
:10406000204629462A462B46FEF768FB204629466D
:104070003246FEF755FB204629463246FEF76AFBDC
:10408000074886600321016002B070BD000009404E
:10409000247E0000287E0000041809407F00FFFFF6
:1040A0000011094010B50D4C0D492046FEF732FABB
:1040B0000C492046FEF70CFA0B4841680B4A0A40AF
:1040C0000F324260816812220A432D218A438260A6
:1040D000016801220A43026010BDC04600A04640AC
:1040E000307E0000327E000004B1464000FCFFFF3D
:1040F00004480021016004480168032291430160E3
:104100007047C04608030B4000010B4010B5084C37
:1041100008492046FEF726FB07492046FEF788FAA5
:10412000064801680122114301600548026010BD84
:10413000002086403C7E0000407E00002830864003
:104140000831864010B5124C12492046FEF73CFB60
:1041500011492046FEF714FB0320C1030F480268F3
:104160008A43026001690E4A0A40113202614169C4
:1041700017220A4328218A434261416801221140E3
:10418000436893435918416001681143016010BDB1
:1041900000801040547E0000567E000000911040C8
:1041A0000000FFFF80B500F021F8FFF757FEFFF792
:1041B0009FFFFFF7EDFEFFF72FFFFFF7A7FFFFF7CA
:1041C000BDFEFFF7BFFFFFF76DFFB82004490022D7
:1041D0000A5404490A54242003490A5480BDC046A5
:1041E0001819202034182020F0182020F0B581B0B4
:1041F00010481149416011484160114B5960114C00
:104200006160114D6960114E7160114F7960114804
:1042100041601149074A1160084A11601960216024
:1042200029603160396001601020FEF70EF901B09D
:10423000F0BDC04600080A40030000B100280A4053
:1042400000088640000809400028864000280F40EA
:104250000088104000A846400100002600280DD02C
:1042600081688900064A81238B50416989008B50FF
:1042700006C8044BCA5041688068C8507047C046A1
:104280000480424090120000F0B581B02E4E30689C
:104290000024E14302F0BCF90128254613D12B4844
:1042A0000468002101602A480568016030680A46F8
:1042B0000B4601F0D0FE2046FCF740FC04462846A1
:1042C000FCF73CFC0546234914200860486022485E
:1042D000076820463946FCF737FB204903F00EFCFF
:1042E0001F49FCF731FB06461A4CA06028463946A8
:1042F000FCF72AFB194903F001FC1949FCF724FBE0
:104300000546206114484068164903F0F7FB07464C
:1043100030461249FCF718FB0146384603F0EEFB25
:10432000114C2146FCF710FB0A4EF06028460B4961
:10433000FCF70AFB0146384603F0E0FB2146FCF798
:1043400003FB706101B0F0BD102F2020101A202057
:10435000381C2020040020203C0020200000704257
:104360000BD7A33CC3F5C8400000C84210B501F00C
:1043700067F9044602F0D0FA002803D001200007B4
:1043800002490860204601F0ACF910BD04ED00E0E0
:10439000F0B581B0009001204206E5490A61E54C84
:1043A00006212163E44E02E0761E012D08D0B1B251
:1043B0004B424B412168C9060546F5D51D46F3E73A
:1043C000216ADB4B1A6004E0216AD94B1A60C907E5
:1043D00021D01A6105262663D74F02E07F1E012DEA
:1043E00008D0B9B24B424B412168C9060546F5D504
:1043F0001D46F3E7216AFF272763CF4D02E06D1EBC
:104400000129E1D0A9B24B424B412168C9060146BE
:10441000F5D51946F3E71A6120212163C64D02E064
:104420006D1E012908D0A9B24B424B412168C90633
:104430000146F5D51946F3E7216A009B1909C9B26F
:10444000216319030091BC4B02E05B1E012908D0D7
:1044500099B24D424D412168C9060146F5D529461C
:10446000F3E7216A0099090AF0230B402363B24B5A
:1044700002E05B1E012908D099B24D424D412168EE
:10448000C9060146F5D52946F3E7216A00212163D3
:10449000A94B02E05B1E012908D099B24D424D4163
:1044A0002168C9060146F5D52946F3E7216AA04BE4
:1044B0001A6004E0216A9E4B1A60C9071FD01A6176
:1044C00026639D4B02E05B1E012908D099B24D4244
:1044D0004D412168C9060146F5D52946F3E7216A11
:1044E0002763954B02E05B1E0129E3D099B24D4250
:1044F0004D412168C9060146F5D52946F3E701B0CB
:10450000F0BDC046F0B581B001246306884D00932C
:104510002B61884E03233363874F02E07F1E012DFA
:1045200008D0BDB26B426B413568ED062546F5D526
:104530001D46F3E7336A0B0CDBB233637E4F02E0B8
:104540007F1E012D08D0BDB26B426B413568ED0670
:104550002546F5D51D46F3E7336A0B0ADBB2336314
:10456000754F02E07F1E012D08D0BDB26B426B413A
:104570003568ED062546F5D51D46F3E7336AC9B221
:1045800031636D4902E0491E012D08D08DB26B42A6
:104590006B413568ED062546F5D51D46F3E7316AD2
:1045A000002A16D0002104E0336A4354491C91428A
:1045B0000FD0FF233363604F02E07F1E012DF3D045
:1045C000BDB26B426B413568ED062546F5D51D46FB
:1045D000F3E700985649086001B0F0BDF0B582B02D
:1045E0000192009001235C0651480461514E06205F
:1045F0003063514D2F4602E07F1E012A08D0BAB227
:10460000504250413268D2061A46F5D50246F3E7C9
:10461000306A474804600461022030632F4602E09C
:104620007F1E012A08D0BAB2504250413268D206E9
:104630001A46F5D50246F3E7306A080CC0B230637B
:104640002F4602E07F1E012A08D0BAB250425041E4
:104650003268D2061A46F5D50246F3E7306A080AF0
:10466000C0B230632F4602E07F1E012A08D0BAB2E2
:10467000504250413268D2061A46F5D50246F3E759
:10468000306AC8B23063294602E0491E012A08D0C8
:104690008AB2504250413268D2061A46F5D50246D7
:1046A000F3E7306A0198002817D0002104E0306A4F
:1046B000491C0198814210D00098405C30632F461D
:1046C00002E07F1E012AF2D0BAB250425041326855
:1046D000D2061A46F5D50246F3E7154F3C6003E0D3
:1046E000306A3C60C00721D03C6105203063294618
:1046F00002E0491E012A08D08AB250425041326875
:10470000D2061A46F5D50246F3E7306AFF20306339
:10471000294602E0491E012AE2D08AB250425041A5
:104720003268D2061A46F5D50246F3E702B0F0BD6C
:1047300090320A4010B1464088130000F0B581B0B5
:10474000002A10D014460D46064600200746800079
:10475000411968460422FFF7D5FE009801C67F1C68
:10476000B8B28442F3D801B0F0BD0000F0B589B012
:104770000E4605904E4C012006900103481E304025
:104780000091081A8242154600D305460192344032
:10479000310B06980002089008E00192039E36183B
:1047A0000599091805910299491C002402910F03EB
:1047B00040483946009AFFF7A5FE28040396049561
:1047C0000BD03C480419002081B2615CFF2930D134
:1047D000A9B2401C82B28A42F6D3F0B20899081AF4
:1047E00084B2ADB2A5422A4600D32246059831468E
:1047F0001646FFF7F3FEA54248D931460498039DBB
:10480000059C0DE088B224182D1820462946324612
:10481000FFF7E4FE0898401C87423146079835D3DD
:10482000401A079087B2FF2F3E46EBD90698060242
:10483000E8E70298FFF7ACFDA8B205990A78227064
:10484000401E641C491C0028F8D11A4D28463946E0
:10485000089C2246FFF7C2FE204600992C460DE038
:1048600080B224183F18204639463246FFF7B6FE7C
:104870000898401C85423046079907D3091A0791CA
:104880008DB2FF2D2E46EBD9089EE9E7049B98B226
:10489000019A91B2814208D0D21A95B206990903C1
:1048A0008D4200D279E70D4677E709B0F0BDC046EA
:1048B000FF0F0000B8072020F0B581B0002A10D00B
:1048C00014460D4606460020074602CE00918000A1
:1048D000411968460422FFF749FF7F1CB8B28442A1
:1048E000F3D801B0F0BD000010B58400029801516A
:1048F00000194260836004480EC0032221460C3830
:10490000FFF7DAFF10BDC04628182020B0B50028F8
:1049100020D00446EFF30580002807D07D20050253
:104920002846FDF792FD641EFAD113E001F0E2FF84
:10493000022808D17D20C1004C43204602F03AFAFB
:1049400001F07CF8B0BD7D2005022846FDF77DFD15
:10495000641EFAD1B0BD00000C4801680020002997
:1049600000D070470A4909680029FAD10949096845
:104970000029F6D10848006808490968491E88429C
:1049800001D00120704702207047C046282F202008
:10499000802F2020242F20204C2F2020D0292020A1
:1049A00080B5FEF76DFE80BDF0B587B00446592096
:1049B0008000BD4F0690385C012800D1A7E004912B
:1049C000256873480168284603F0FCF80121059129
:1049D000CE07B0436F4902F015FC00280CD1606887
:1049E0006D490968039003F0EDF8B043694902F09E
:1049F00009FC002800D18CE06A4900200860684961
:104A00000860694908606B4908606849086068493E
:104A100008605F490D60684908806168A2685E4B64
:104A200019605E490A6080B2010919296FD3FCF749
:104A30008DF804465B4800682146FBF785FF80211E
:104A400004917850584800682146FBF77DFF842187
:104A500002917850574800682146FBF775FF0646DB
:104A6000942003903E50514800682146FBF76CFFAC
:104A70000546982001903D50494800682146FBF7C3
:104A800063FFF8674A4800682146FBF75DFF04466C
:104A90003046314603F032F801467F20C00503F06E
:104AA00091F806462846294603F028F80146304684
:104AB00003F088F800F052FD0146204603F082F82A
:104AC0009C24385102983B5804983A58F96F3B4D52
:104AD00000950520FFF708FF3B5901983A580398C5
:104AE000395800950220FFF7FFFE069805993954C2
:104AF00000202C4908602A4908602B4908602D498C
:104B000008602A4908602A4908602B49088007B0D4
:104B1000F0BDA06821490968029003F053F8B04342
:104B20001C4902F06FFB002800D065E7FF206430CD
:104B3000385C012800D05FE7194E3168284602F042
:104B400019FF3060174E3168039802F013FF306090
:104B5000154E3168029802F00DFF3060049E7068B7
:104B60001249096802F006FF10490860B068104950
:104B7000096802F0FFFE0E4908600E4801683068BF
:104B800002F0F8FE0B4908600B480088401C40E723
:104B9000041A202000004040081A20200C1A20206F
:104BA000F8192020FC192020001A2020EC192020C0
:104BB000F0192020E8192020F4192020AC00202032
:104BC000F0B587B0052004AC2146FFF713F9211D8D
:104BD0000620FFF70FF9083407202146FFF70AF9EE
:104BE000049841002E4D2F4A914215D20121CB0746
:104BF000059A14469C43AC420ED2069C26469E4320
:104C0000AE4209D28423284EF4508023F250592218
:104C10009200B154F06706E08420234900220A5034
:104C200080200A50CA677F20C00590211E4E705018
:104C30008C21705088217050022001AC2146FFF772
:104C4000D9F8211D0320FFF7D5F8083404202146A8
:104C5000FFF7D0F80120C30701990A469A43AA42F8
:104C600014D2029A14469C43AC420FD2039C2746AE
:104C70009F43AF420AD29C23F4509823F2509422CF
:104C8000B15059218900705407B0F0BD9C2000211B
:104C90003150982031509420315007B0F0BDC046BB
:104CA0000100807F020000FF3C1C202082B0FFF743
:104CB00079FAFEF7DDFCFEF78DFFFEF76DFFFDF7DD
:104CC00031FE00230120009001934202034804A119
:104CD00001F0BCFD01F002F8FEE7C046F12700003C
:104CE000446973706C61795461736B00F0B581B085
:104CF000044600F02FFD7A480168491C01607A4F94
:104D0000396800290AD036480068002847D1E06A8F
:104D10003968C96A814242D83C6040E03C60006822
:104D200001283CD1714D284600F0DEFC28461430A5
:104D300000F0DAFC2846283000F0D6FC28463C304B
:104D400000F0D2FC2846503000F0CEFC28466430FB
:104D500000F0CAFC2846783000F0C6FC28468C30AB
:104D600000F0C2FC2846A03000F0BEFCB435284656
:104D700000F0BAFC1B4D284600F0B6FC1A4E304637
:104D800000F0B2FC194800F0AFFC544800F0ACFC55
:104D9000174800F0A9FC1748056017480660174837
:104DA0000168491C21640160E06A4E490A6890422A
:104DB00000D90860142141434C484018211D00F0DF
:104DC000BEFC00F0D1FC06480068002806D0E06A6E
:104DD0003968C96A814201D200F002FE01B0F0BD1B
:104DE0003C2F2020D82E2020EC2E2020282F2020E1
:104DF0004C2F2020601B2020681B2020DC29202035
:104E000082B001200190344E344F354D05E0206BC7
:104E100000F0B8FC204600F0B5FC3068002817D040
:104E200000F098FCF868C468201D00F030FC286889
:104E3000401E28603068401E306000F095FC612004
:104E4000205C0228E9D00128E4D00028DFD03EE031
:104E50002448006824490968C96A0029DDD1411E37
:104E60008841224909680129019900D80146002991
:104E7000D3D11F4800681F490968401A0228CCD3C3
:104E80001D490868401C08601948006819490968EC
:104E900088421ED31348006813490968C96A00296B
:104EA00012D1411E8841114909680129019900D890
:104EB0000146002908D10E4800680E490968401AC9
:104EC000022801D300F0DEFC01F054FEA5E772B623
:104ED000FEE772B6FEE7C046D4292020602F2020CE
:104EE000D0292020E0292020581B2020701B2020C2
:104EF000142F2020742F2020D8292020F0B583B033
:104F000002930F4601900A9C206B9600A522314621
:104F1000FBF785FA206B8019031F072021463431E7
:104F2000089D002F30D03A780A70002A29D07A786C
:104F30004A70002A25D0BA788A70002A21D0FA78DF
:104F4000CA70002A1DD03A790A71002A19D07A79DC
:104F50004A71002A15D0BA798A71002A11D0FA79DB
:104F6000CA71002A0DD03A7A0A72002A09D07A7AD8
:104F70004A72002A05D0BA7A8A72002A01D0FA7AD7
:104F8000CA720022CA7201E000220A7083430093B1
:104F9000099F0026E664092D00D30925A564E56272
:104FA000201D00F0ABFB2046183000F0A7FB0A20C4
:104FB000401BA06126656665A665E6652046503003
:104FC00006746462246100AA07CA00F0B5FA206082
:104FD000002F00D03C6003B0F0BD0000F0B583B0FE
:104FE000002936D01D460F4606460292099C0898B5
:104FF000019000F0AFFBCD480068002815D116489D
:1050000000F072FB154800F06FFBC74813490160C0
:10501000C448114901600020009014200C21104A5E
:10502000104B00F0CDFFC149086000F09DFBA76167
:10503000E561019820622660201D00F05FFB029868
:10504000002804D02820215C04220A43225403B003
:10505000F0BD72B6FEE7C046AC2E2020C02E202048
:10506000141A2020041B2020F0B585B0044601F05E
:105070004FFC234A1168884233D200940190A94F13
:1050800005E068602D613868314600F03AFB386809
:105090000168002927D0C0680468C5682E1D304605
:1050A00000F0F5FA296A284688472820285C40073E
:1050B000EDD5A8690019A042E3D89C4E30680028BD
:1050C0000DD0049503940025029501F013FC30687F
:1050D00002A92A462B4600F0BEFF0028D7D172B69F
:1050E000FEE7002107E090490A683A600860012164
:1050F0000198009C024A1060216005B0F0BDC046D6
:10510000541B202081B0002000900A48006872B62D
:10511000401C09D0FEE70098002808D1009800281C
:1051200005D10098002802D100980028F3D001B0E2
:105130007047C046440020208AB07A4E7B4F3068CA
:105140000468002C02D0C068056800E0002500F06B
:105150002DFE04A8FFF788FF0499002902D001F072
:1051600009FD52E0002C15D0854213D8029001F0C1
:1051700001FD3068C068C468201D019000F087FA06
:105180002820205C410709D421462831FA2210400A
:10519000087037E0002C12D0002215E0A0694119F8
:1051A00061602461029A9142314603D8511B8142C9
:1051B0005D4914D20868019900F0A3FA22E05A4927
:1051C000096809684A424A41291A386800F014FC03
:1051D00001F0D0FC002818D100F002FC15E038687E
:1051E000002800D19BE0099408950025079501F05F
:1051F00081FB386807A92A462B4600F02CFF0028BF
:1052000000D18CE0216A20468847386804A9002232
:10521000029202E0386804A9002201F0EEF80028AA
:105220008DD004980028F5D4069D6869002802D026
:10523000281D00F02CFA03A8FFF716FF049909298E
:10524000E8D8C0467944097949008F440A0A0A041B
:1052500042570A0A04422820295CFE220A402A54A6
:10526000D8E728216A5C012313436B54AB69059985
:105270005A186A602D61824224D98842304625D26C
:105280008A42304622D334462E462836296A28469A
:105290008847307826464007BCD5386800283AD081
:1052A000A8690599099540180890029C079401F097
:1052B00021FB386807A92246234600F0CCFE0028CF
:1052C000A8D128E0401A98421748DCD2291D00686E
:1052D00011E028216A5C012313436B540599A961ED
:1052E00000291AD0091869602D618142304600D822
:1052F0000D480068291D00F004FA8BE72820285C7F
:10530000810703D4284600F03DFA83E72835FE21C3
:10531000084028707EE772B6FEE772B6FEE772B606
:10532000FEE7C0465C1B20206C1B2020782F20202D
:10533000F0B581B004460646443600F00BFA012071
:105340003756012F12DB2546243504E0781E79B24A
:10535000012907460ADD2868002807D0284601F001
:10536000C9FB0028F2D000F007FCEFE7FF257570BD
:1053700000F0FAF900F0EEF900203756012F11DBAA
:10538000103404E0781E79B2012907460ADD20684E
:10539000002807D0204601F0ADFB0028F2D000F035
:1053A000EBFBEFE7357000F0DFF901B0F0BD000076
:1053B000F0B583B0054600F0F9FC52480368002BB5
:1053C00002D0514909781DE00721CA434F4B5907C4
:1053D000194601D0D91D11404D4C0326B6029E1925
:1053E0001640083E0660002206C432607260036800
:1053F000721A0B604A6047490A6047490A60424A8C
:10540000012111700024002D01D4224600E0012268
:105410002E460836092E6CD30A406AD10722294647
:10542000914310310024B14200D821466A0700D0D0
:105430000E46711EF94A126891425AD2F84D2A68F6
:105440005768B74207D21168002904D015460A46AA
:105450004F68B742F7D39A424BD02C681168296045
:10546000B91B11292DD393195D0701D072B6FEE740
:1054700059605660EA4E3168994204D20E689E42E5
:105480000D46F8D301E035460E46696801916F1864
:1054900002975F680299994203D101997F186F6062
:1054A0002B46D919B14201D0304606E00068864249
:1054B00003D07068C0195860306818609D4200D0F1
:1054C0002B605068D54B1968091A1960114B1D687B
:1054D000A94200D219600834CF490978002313602B
:1054E0000E4B1D686D1C1D604B1E9941C90708437A
:1054F000506001F03FFB600701D072B6FEE7204626
:1055000003B0F0BD641B2020D42E2020C81D202015
:10551000442F20200C2F2020002F20201C2F202063
:1055200004480168002903D00168CA6C521CCA648F
:1055300000687047581B20200346083B1960011F74
:1055400001231B060B6001460C39034B0B6001461F
:1055500020390A60403870470551000080B502F0DC
:10556000C7F94100024A914200D3002080BDC046E5
:10557000020000FF10B582B001AC002222700123AE
:105580002246FEF77DF8207802B010BD70B582B0DB
:105590000546002000906B465A7019700190234C0C
:1055A000022220461946FCF755FFC8220120204957
:1055B00002E0521E012E08D096B2734273410E686B
:1055C000B6060646F5D41E46F3E70A46083A1368BF
:1055D000184E1E406B00F31813600A1F1368164D17
:1055E0001D40164BEB181360C82202E0521E012D1D
:1055F00008D095B26B426B410D686D060546F5D536
:105600001D46F3E7C82202E0521E012D08D095B2D4
:105610006B426B410D68AD060546F5D41D46F3E7B8
:105620002046FCF72DFF02B070BDC04600200F40A1
:1056300018320F4000F8FFFFF8FF00F007000200EB
:10564000EFF3108072B6704782B070B5C2B00D46ED
:1056500004464692479346AB01930120010202AEF5
:1056600030462A46FAF75AFE3046FAF775FE002809
:1056700008D0054602AE31782046FDF7AFF8761C1B
:105680006D1EF8D142B070BC01BC02B00047416849
:1056900082688A60516001694B68834200D14A6028
:1056A0000A68521E0A600022026108687047000002
:1056B000034B036080201060024808607047C046BA
:1056C000E42B2020E4292020034B0360802010607D
:1056D000024808607047C046482E2020482C2020F1
:1056E000FEE780F31088704700210160024608320F
:1056F000C94342608160C26002617047002101615C
:105700007047B0B50B685A1C0BD004460834626869
:1057100015689D4208D8546825689D422546F6D9EB
:1057200004E00269556801E015462246A960086157
:105730004D608A6051600168491C0160B0BD4268DB
:105740004A6093688B600861596003685B1C036062
:105750009160704772B60A480168491C0160BFF346
:105760004F8FBFF36F8F704705480168002903D042
:10577000491E016002D0704772B6FEE762B67047FC
:1057800044002020B0B5002844D0234909784A1E9F
:105790009141C907041F2268114205D008380368E7
:1057A000002B03D072B6FEE772B6FEE78A43226092
:1057B000054600F0FBFA28462168184A13685B1872
:1057C0001360174B1C68844204D22368834222462C
:1057D000F8D301E01A46234654681519854202D1D0
:1057E00009195160104644189C4201D01C4607E03C
:1057F0000C4C2468A34203D05C68611841601C68AB
:105800000460824200D0106007480168491C0160B2
:1058100001F0B0F9B0BDC046D42E2020002F2020CA
:10582000442F2020641B2020202F202068480121A5
:105830000170694801706948017066480021016083
:10584000816002494160072101607047FF7C0000D0
:105850000B4A13681868203080F30988022080F30F
:105860001488BFF36F8F3FBCAE4608BC04BC62B661
:105870001847C046C046C046C046C046C046C0469F
:10588000581B2020F0B585B0064651480178514F8D
:1058900038680122049290433860B8687D2214026F
:1058A0004D4A1378002B224646D0002947D18E421C
:1058B00000D30E46711E01914A43101847490978DA
:1058C0000029039400D02D21451A00D8054672B650
:1058D000BFF34F8FBFF36F8F0024E0430290FFF7B9
:1058E0003BF8002830D07D60BC60386804990843DC
:1058F0003860002E04D0BFF34F8F30BFBFF36F8FDF
:1059000062B6BFF34F8FBFF36F8F72B6BFF34F8F87
:10591000BFF36F8F062038603868C00320D4039D22
:105920006E43B868361A3046294601F043FA2946D4
:105930004143891B491937E01A460029B7D0832112
:1059400089008E42B5D2B5E7B868786038680499A6
:105950000843386020480078002808D1029808E001
:105960001D480078002808D10299039E07E003989B
:10597000401E786062B605B0F0BD039E711EBA6825
:10598000521B521800283346354600D103469A422E
:10599000084600D810462D2A00D301460F4A127837
:1059A000002A00D1014601987960BC603A680499E8
:1059B0000A433A6000F0E8F907480078002801D16E
:1059C000029800E0681E786062B605B0F0BDC0467F
:1059D000082F202010E000E0CC292020C82920201A
:1059E0000120000703490860BFF34F8FBFF36F8F9B
:1059F0007047C04604ED00E070B515460E460446FB
:105A0000FFF7A8FE4420215C20464430FF2901D145
:105A1000002101704178FF2901D100214170FFF779
:105A2000A3FEA06B002805D12046243031462A462B
:105A300000F0D6F82046FFF77BFC70BD70B500285B
:105A40002CD0DD490A68002A01D072B6FEE70A6848
:105A5000521C0A60D3490C689F4D2968091D0646EF
:105A60000846FFF714FEA4192868446006D37B4853
:105A700000682968091DFFF744FE0AE076480068BF
:105A80002968091DFFF73DFEC74801688C4200D216
:105A9000046001F06FF8002800D070BDFFF7A0FF90
:105AA00070BDC04670B50446FFF754FE002C01D10E
:105AB00089480468251D2846FFF7E9FDA06A0028EB
:105AC00003D020461830FFF7E2FD22480168491C48
:105AD0000160814E306884421AD01F480168491E17
